:020000040800F2
:10000000780500200501000825190008D115000811
:10001000B11800088D010008E51E0008000000006E
:100020000000000000000000000000004D19000862
:10003000A901000800000000271900084F19000856
:100040001F0100081F0100081F0100081F01000810
:100050001F0100081F0100081F0100081F01000800
:100060001F0100081F0100081F0100081F010008F0
:100070001F0100081F010008910100089D010008F0
:100080001F0100081F0100081F0100081F010008D0
:100090001F0100081F0100081F0100081F010008C0
:1000A0001F0100081F0100081F0100081F010008B0
:1000B0001F0100081F0100081F0100081F010008A0
:1000C0001F0100081F0100081F0100081F01000890
:1000D0001F010008D91E00081F0100081F010008A9
:1000E0001F0100081F0100081F010008DFF810D0E1
:1000F00000F03AF800480047711F0008AFF3008095
:10010000780500200648804706480047FEE7FEE7DE
:10011000FEE7FEE7FEE7FEE7FEE7FEE7FEE7FEE7B7
:10012000B1190008ED000008D2B201E000F8012B7F
:10013000491EFBD270470022F6E710B513460A4667
:1001400004461946FFF7F0FF204610BD10B5002207
:1001500000E0521C835C8C5CA34201D1002BF8D1DF
:10016000D8B2E1B2401A10BD064C074D06E0E06877
:1001700040F0010394E8070098471034AC42F6D3EE
:10018000FFF7B8FF94200008B4200008FEE7000045
:10019000014800F07BB80000EC000020014800F0AE
:1001A00075B8000030010020704772B6FEE710B548
:1001B00090F821100022022905D00421816380F8E3
:1001C0002020012010BD01680B6823F00E030B6096
:1001D00001680B6823F001030B6090F84030C46B9A
:1001E000012101FA03F3636080F8211080F82020D8
:1001F000104610BD10B5002490F82110022903D03C
:100200000421816301243DE001680A6822F00E02A6
:100210000A6001680A6822F001020A601A4A01684D
:10022000914201D1012121E0174A1432914201D1BA
:1002300010211BE0144A2832914201D1891515E0A2
:10024000114A3C32914201D189140FE00E4A5032DA
:10025000914202D14FF4803108E00B4A643291425E
:1002600002D14FF4801101E04FF08071064A083A44
:100270005160012180F82110002180F82010416B8D
:1002800001B18847204610BD080002402DE9F05F0B
:10029000C16B0A6801680B68046C4FF0040A0AFA23
:1002A00004FA4E4D4E4E4F4FDFF83CC1DFF83C8113
:1002B000DFF83C911AEA020F31D05FEA437A2ED57B
:1002C0000A68920603D40A6822F004020A600168F0
:1002D000A94201D1042119E0B14201D1402115E028
:1002E000B94202D14FF4806110E0614502D14FF470
:1002F00080410BE0414502D14FF4802106E04945A1
:1003000002D14FF4800101E04FF08061334A083A96
:100310005160C16A00295FD0BDE8F05F08474FF027
:10032000020E0EFA04FE1EEA020F4FF0000A4FF012
:10033000010B35D05FEA837E32D50A68920605D478
:100340000A6822F00A020A6080F821B00168A94216
:1003500001D1022119E0B14201D1202115E0B942B9
:1003600002D14FF4007110E0614502D14FF4005109
:100370000BE0414502D14FF4003106E0494502D17E
:100380004FF4001101E04FF00071144A083A516037
:1003900080F820A0816A00291ED0BDE8F05F0847E0
:1003A0000825A540154217D01A0715D50A6822F06E
:1003B0000E020A6090F84010C26B0BFA01F1516016
:1003C000C0F838B080F821B080F820A0016B002977
:1003D00002D0BDE8F05F0847BDE8F09F080002408A
:1003E0001C0002403000024044000240580002401D
:1003F0006C00024030B5002827D0001D144A50F888
:10040000041C14230A44B2FBF3F29200C263114AA3
:100410008263022242770A6843F6F0739A43D0E976
:1004200000342343D0E902452C432343046923438A
:10043000446923438469234313430B6000214163D0
:10044000012242770177002030BD012030BD00003D
:10045000F8FFFDBF0000024070B5044600F016F939
:100460000546601C02D004480078044400F00EF9F0
:10047000401BA042FAD370BD040000202DE9F84FC4
:1004800000240023DFF8C4914FF00F0809F1040A9B
:100490000AF1040B0BF1040ED1E00127A7403A400A
:1004A000BA4275D1DFF8A8C14D68A5EB0C066545C9
:1004B0002BD00DDC032D34D005DC35B3012D19D044
:1004C000022D2FD11BE0112D16D0122D2AD119E0AB
:1004D000B6F5881F19D006DCB6F5803F15D0B6F505
:1004E000801F1FD111E0B6F5001F0ED0B6F5041F16
:1004F00018D10AE0CB6815E0CB681B1D12E0CB6871
:1005000008330FE0CB680C330CE08B6823B1012B70
:1005100004D00823476105E0042303E008230761B2
:1005200000E00023FF2A01D8054601E000F10405A0
:1005300002D84FEA840603E0A4F108064FEA8606D3
:100540002F6808FA06FC27EA0C0703FA06F647EAC2
:1005500006072F604D68ED0070D53E4DAE6946F040
:100560000106AE61AD6905F0010500953A4D24F034
:1005700003067719BE68A5072D0F08FA05FC26EAC1
:100580000C06DFF8D8C0604503D14FF0000C17E02F
:1005900054E0DFF8CCC0604502D14FF0010C0FE011
:1005A000DFF8C0C0604502D14FF0020C08E0DFF870
:1005B000B8C0604502D14FF0030C01E04FF0040CCD
:1005C0000CFA05FC4CEA060CC7F808C04D68ED03B0
:1005D00005D5D9F800501543C9F8005004E0D9F802
:1005E00000509543C9F800504D68AD0305D5DAF8C1
:1005F00000501543CAF8005004E0DAF80050954363
:10060000CAF800504D68ED0205D5DBF800501543DF
:10061000CBF8005004E0DBF800509543CBF80050D5
:100620004D68AD0205D5DEF800501543CEF80050F8
:1006300004E0DEF800509543CEF80050641C0A68D0
:1006400032FA04F57FF429AFBDE8F88F00040140C9
:10065000000011100010024000000140000801409D
:10066000000C01400010014000140140C26821EA62
:1006700002030A4043EA024101617047002A01D0A7
:1006800001617047090401617047000001488068FA
:10069000704700000400002002488168027811447D
:1006A000816070470400002010B50748016841F0E0
:1006B00010010160032000F077F80F2000F006F829
:1006C00000F026F8002010BD0020024070B504465E
:1006D0000D4D4FF47A712878B1FBF0F00B490968A1
:1006E000B1FBF0F000F03EFB08B1012070BD102C12
:1006F00007D200222146501E00F036F86C60002020
:1007000070BD012070BD000004000020100000201A
:1007100008B50C48816941F001018161816901F0EE
:1007200001010091C16941F08051C161C06900F0CF
:10073000805000900449486820F0E06040F000706C
:10074000486008BD0010024000000140002809DB9D
:1007500000F01F02012191404009800000F1E020DB
:10076000C0F8001170470000F0B40D460D4B1B6837
:10077000C3F30223C3F10704042C00D90424191D78
:10078000072901D2002300E0DB1E012606FA04F14E
:10079000491E294099409E40761E16403143F0BCC8
:1007A00001F0AABB0CED00E000F00701054A10685B
:1007B0004FF6FF03184040EA012003490843106048
:1007C000704700000CED00E00000FA052DE9F0474D
:1007D00004460D46002C17D0DFF83081D8F8000011
:1007E00000F00700A84211D2D8F8000020F007005E
:1007F0002843C8F80000D8F8000000F00700A8421D
:1008000004D00120BDE8F0870120FBE72068404EBE
:10081000810712D5400703D5706840F4E06070602E
:100820002078000703D5706840F4605070607068ED
:10083000A16820F0F000084370602078C0072CD039
:100840006068012806D0022809D0316889070BD4D6
:100850000120D7E73168890306D40120D2E7316847
:10086000890101D40120CDE7716821F00301014322
:100870007160FFF70BFF074641F2883906E0FFF78A
:1008800005FFC01B484501D90320BBE770686168BC
:1008900000F00C00B0EB810FF1D1D8F8000000F0AF
:1008A0000700A8420ED9D8F8000020F0070028431E
:1008B000C8F80000D8F8000000F00700A84201D0F6
:1008C00001209FE72078400705D57068E16820F493
:1008D000E060084370602078000706D570682169E1
:1008E00020F4605040EAC100706000F03FF8716889
:1008F000084AC1F30311515CC84007490860074822
:100900000068FFF7E3FE00207CE7000000200240C3
:10091000001002407C200008100000200800002089
:1009200001480068704700001000002000B5FFF784
:10093000F7FF04494968044AC1F30221515CC840E9
:1009400000BD0000001002408C20000800B5FFF739
:10095000E7FF04494968044AC1F3C221515CC84019
:1009600000BD0000001002408C20000885B014A0DB
:1009700090E80E00C068CDE902230191049014A014
:1009800000680090134B5968134801F00C02042AC8
:1009900010D0082A0ED101A8C1F38342805CC9039C
:1009A0000AD55968C1F340411DF801100A4A504365
:1009B000B0FBF1F005B0704708494843FAE7000082
:1009C00002030405060708090A0B0C0D0E0F101090
:1009D000010200000010024000127A0000093D00F0
:1009E0002DE9F84F0446002C0ED02078D94DC007D1
:1009F0005ED06868C0F3810001280BD06868C0F33E
:100A00008100022803D00CE00120BDE8F88F68685F
:100A1000C00306D5286880034AD56068A8BB0120BA
:100A2000F3E76068B0F5803F11D0A8B1B0F5A02F12
:100A30001BD0286820F480302860286820F48020AB
:100A40002860606830B3FFF721FE06461EE0286884
:100A500040F480302860F4E7286820F48030286073
:100A6000286820F480202860EBE7286840F4802084
:100A70002860286840F480302860E2E7FFF706FE2F
:100A8000801B642802D90320BFE711E02868800397
:100A9000F4D50DE0FFF7FAFD064606E0FFF7F6FD98
:100AA000801B642801D90320AFE728688003F5D4B0
:100AB0002078DFF8A48280074FF0010A4FF0000988
:100AC00045D5686810F00C0F07D06868C0F3810046
:100AD000022812D16868C0030FD42868800704D5A3
:100AE0002069012801D001208FE72868616920F082
:100AF000F80040EAC100286029E02069B8B1C8F8D0
:100B000000A0FFF7C3FD064606E0FFF7BFFD801B10
:100B1000022801D9032078E728688007F5D52868DE
:100B2000616920F0F80040EAC10028600FE0C8F8D1
:100B30000090FFF7ABFD064606E0FFF7A7FD801B20
:100B4000022801D9032060E728688007F5D42078BF
:100B5000000726D58148A16999B1C0F800A0FFF728
:100B600095FD064606E0FFF791FD801B022801D99E
:100B700003204AE7686A8007F5D5012000F0D4FE1B
:100B80000FE0C0F80090FFF781FD064606E0FFF792
:100B90007DFD801B022801D9032036E7686A8007A3
:100BA000F5D42078400773D50026E869C00008D442
:100BB000E86940F08050E861E86900F080500090FA
:100BC0000126DFF89CB1DBF80000C00514D4DBF887
:100BD000000040F48070CBF80000FFF757FD074697
:100BE00006E0FFF753FDC01B642801D903200CE782
:100BF000DBF80000C005F4D5E068012812D0B0B1E0
:100C000005281DD0286A20F001002862286A20F0FB
:100C100004002862E06841F2883B28B3FFF736FD04
:100C200007461DE0286A40F001002862F2E7286AC2
:100C300020F001002862286A20F004002862E9E719
:100C4000286A40F004002862286A40F00100286207
:100C5000E0E7FFF71BFDC01B584501D90320D4E690
:100C6000286A8007F5D50DE0FFF710FD074606E07E
:100C7000FFF70CFDC01B584501D90320C5E6286AC3
:100C80008007F5D4012E03D1E86920F08050E86197
:100C9000E069A0B36968C1F38101022946D0022846
:100CA00005D0C8F86090FFF7F1FC04463AE0C8F8B8
:100CB0006090FFF7EBFC064606E0FFF7E7FC801BC1
:100CC000022801D90320A0E628688001F5D4206A13
:100CD000B0F5803F05D16868A16820F40030084372
:100CE0006860D4E908010843696821F47411084375
:100CF0006860C8F860A0FFF7C9FC044607E026E07A
:100D0000FFF7C4FC001B022801D903207DE62868F8
:100D10008001F5D51BE0FFF7B9FC001B022801D9C3
:100D2000032072E628688001F5D410E001280CD079
:100D30006868226A00F48031914204D1616A00F44B
:100D40007010884203D001205FE601205DE600209C
:100D50005BE6000000100240000042428004424274
:100D60000070004010B5401EB0F1807F01D301201B
:100D700010BD4FF0E02460610F21601701F0BCF856
:100D80000020A06107202061002010BD70B590F800
:100D90003C20012A25D0012680F83C60022280F800
:100DA0003D2002685468936824F070050C682C4359
:100DB00054600D4C0268A24208D0B2F1804F05D0B9
:100DC0000A4CA24202D00A4CA24204D123F0800372
:100DD0004968194391603C30467000210170002041
:100DE00070BD022070BD0000002C014000040040D6
:100DF0000008004010B50446002C03D094F83D00D4
:100E000010B107E0012010BD002084F83C0020460E
:100E100000F016F8022084F83D00211D206800F043
:100E2000C9FD01203D3460726070A070E0702071D7
:100E30006071A071E07120722070002010BD000070
:100E400008B50068B0F1804F08D10548C16941F08C
:100E50000101C161C06900F00100009008BD0000FF
:100E60000010024070B5044694F83C00012817D0E9
:100E7000012584F83C50022084F83D0020688268F7
:100E800022F0770222F47F4282600868502831D035
:100E90000DDC20284DD005DCB0B310284ED148E041
:100EA000022070BD302844D0402847D137E0602868
:100EB0002BD0702806D0B0F5805F3FD0B0F5005F32
:100EC0003CD10BE0CB68D1E90121206800F0B5FDF1
:100ED0002068816841F0770181602FE0CB68D1E91B
:100EE0000121206800F0A9FD2068816841F480415B
:100EF000816023E0CA684968206800F067FE5021DD
:100F0000206800F0A4FD19E013E0CA684968206871
:100F100000F06DFE6021206800F099FD0EE0CA68C7
:100F20004968206800F052FE4021206800F08FFDE3
:100F300004E022680146104600F089FD3C346570EB
:100F40000020207070BD000000B585B00021019127
:100F50000291039104910068144A0221B0F1804F7C
:100F600014D0134B98420FD1906940F00800906163
:100F7000906900F008000090012001900291049116
:100F800001A90C48FFF77AFA05B000BD906940F05E
:100F900004009061906900F00400009001910291BA
:100FA000049101A90448FFF769FAEDE70010024037
:100FB00000040040000C01400008014070B50446E8
:100FC0000D4694F83C0001280AD0012084F83C002A
:100FD00042B1042A1AD0082A2DD00C2A53D13EE05F
:100FE000022070BD2946206800F03AFD2068816922
:100FF00041F0080181612068816921F0040181616B
:10100000206881692A69114381613CE02946206892
:1010100000F056FD2068816941F40061816120681B
:10102000816921F480618161206881692A6941EACE
:101030000221816127E02946206800F073FD2068C5
:10104000C16941F00801C1612068C16921F0040152
:10105000C1612068C1692A691143C16113E0294651
:10106000206800F08FFD2068C16941F40061C16112
:101070002068C16921F48061C1612068C1692A6961
:1010800041EA0221C161002084F83C0070BD10B526
:101090000446002C03D094F83D0010B107E0012075
:1010A00010BD002084F83C00204600F015F8022016
:1010B00084F83D00211D206800F07CFC01203D34B7
:1010C00060726070A070E07020716071A071E0715A
:1010D00020722070002010BD08B5006806498842C3
:1010E00008D10648C16941F00201C161C06900F040
:1010F0000200009008BD0000000400400010024003
:1011000010B50446002909D004290AD008290BD0BB
:1011100094F8410001280AD0012010BD94F83E0047
:10112000F8E794F83F00F5E794F84000F2E7022072
:1011300039B3042928D0082929D084F84100012294
:10114000206800F06DFC16492068884203D1426C8B
:1011500042F4004242642068884208D0B0F1804FD7
:1011600005D01049884202D00F49884212D18168C7
:1011700001F00701062911D0016841F00101016069
:101180000CE084F83E00DAE784F83F00D7E784F803
:101190004000D4E7016841F001010160002010BD6A
:1011A000002C0140000400400008004070477047D8
:1011B000F8B5044622681068D168536900F00F053D
:1011C000002D08D1860606D58E0604D52046BDE83A
:1011D000F84000F04BBD0026002D60D003F0010563
:1011E00001F490772F435AD0C20705D0CA0503D522
:1011F000226C42F001022264420705D5DA0703D0CF
:10120000226C42F002022264820705D5DA0703D07D
:10121000226C42F004022264020707D501F020028A
:101220002A4303D0226C42F008022264226C002A76
:101230002BD0800604D5880602D5204600F016FD86
:1012400020684069C0F38010216C090700D408B3FE
:10125000204600F0E6FC20684169490616D5416940
:1012600021F040014161A06B60B143494163A06B33
:10127000FEF7C0FF002808D0A06B416B01B0BDE8AD
:10128000F04008472046FFF792FFF8BD2046FFF7E1
:101290008EFFF8BD2046FFF78AFF2664F8BD236B5A
:1012A000012B57D1C30655D5CB0653D510685068CE
:1012B000009050694FF0200340062DD5A16B0868BF
:1012C000406880B20028E9D0A58D8542E6D9E08546
:1012D0008869202818D0D06820F48070D0602068F9
:1012E000416921F0010141612068416921F040011B
:1012F000416184F83E3026632068C16821F0100106
:10130000C160A06BFEF753FFA08DE18D401A81B242
:101310002046FFF74BFFF8BDA08DE18D401A81B24A
:10132000E08D0028F7D00029F5D0D06820F4907027
:10133000D0602068426922F00102426184F83E30A8
:1013400026632068C26822F01002C2602046FFF7C0
:101350002DFFF8BD020606D50A0604D52046BDE8D5
:10136000F84000F058BD4006F3D54806F1D52046B8
:10137000BDE8F84000F06DBC131C000870B50446D1
:10138000002C04D094F83D00002510B106E00120A7
:1013900070BD84F83C50204600F022F8242084F8E8
:1013A0003D002068C16821F40051C160204600F072
:1013B000BBFC2068016921F490410161206841690A
:1013C00021F02A0141612068C16841F40051C160E7
:1013D0002564202084F83D0084F83E00002070BD84
:1013E000F0B585B004460025019502950395049556
:1013F0002D492068884254D12C48816941F48041AC
:101400008161816901F480410091816941F00401A9
:101410008161806900F0040000904FF40070019039
:101420000220029003200490214E01A93046FFF7CC
:1014300025F8301501900295039501A93046FFF774
:101440001DF81D4E1B48306010207060B56080276D
:10145000F76035617561B561F5613046FEF7CAFF29
:1014600008B1FEF7A2FE666374621248124E143091
:10147000443630607560B560F76035617561B5619F
:10148000F5613046FEF7B6FF08B1FEF78EFEA663A3
:101490007462002211462520FFF766F92520FFF728
:1014A00055F905B0F0BD00000038014000100240C1
:1014B0000008014044000240EC00002090F83E305B
:1014C000202B01D00220704759B152B190F83C3026
:1014D000012B08D0012380F83C300023036300F087
:1014E0007FBC0120704702207047000010B56423C4
:1014F00004220549054800F00BF8BDE8104004221D
:1015000001490248FFF7DABF00000020A8000020D0
:101510002DE9F84304460E4615461F4694F83D0053
:10152000202802D00220BDE8F883C6B1BDB194F8EE
:101530003C00012815D0012084F83C004FF0000940
:10154000C4F84090212084F83D00FFF79FF88046C2
:10155000A584E584A068B0F5805F04D005E0012093
:10156000E1E70220DFE7206920B13546002684F854
:101570003C9013E00025FAE74346002280212046F4
:10158000009700F077FC08B10320CCE79DB12168FB
:1015900015F8010B4860E08C401EE084E08C0028C8
:1015A000EAD14346002240212046009700F062FC29
:1015B00040B10320B7E736F8020B2168C0F30800FA
:1015C0004860E8E7202084F83D000020ABE7704742
:1015D000FEE7000010B5084C002208212046FFF766
:1015E0004DF8012210212046FFF748F8BDE81040D1
:1015F00002A000F079BC0000000C01404C6566744C
:101600004D6F746F72206973206261636B0D0A0005
:1016100010B5084C012208212046FFF72FF80022C0
:1016200010212046FFF72AF8BDE8104002A000F084
:101630005BBC0000000C01404C6566744D6F746F1C
:101640007220697320676F0D0A00000010B5084C06
:10165000002208212046FFF711F800221021204621
:10166000FFF70CF8BDE8104002A000F03DBC000000
:10167000000C01404C6566744D6F746F7220697385
:101680002073746F700D0A0008B50D48416941F070
:1016900001014161406900F0010000900022114603
:1016A0000E20FFF761F80E20FFF750F800221146D8
:1016B0000F20FFF759F8BDE808400F20FFF746B8A4
:1016C000001002402DE9F04186B0002402940394FA
:1016D000049405942248816941F010018161816977
:1016E00001F010010191816941F02001816181695E
:1016F00001F020010191816941F00401816181695A
:1017000001F004010191816941F008018161806962
:1017100000F008000190DFF84C804FF400550022E3
:1017200029464046FEF7AAFF0F4F0122782138468E
:10173000FEF7A4FF02950126039604940225059561
:1017400002A94046FEF79AFE782002900396049480
:10175000059502A93846FEF791FE06B0BDE8F08176
:101760000010024000100140000C014010B58EB086
:1017700000240A940B940C940D94089409941C2151
:1017800001A8FEF7D8FC1E484FF0804101604721B8
:1017900041608460C821C160046180218161FFF7DC
:1017A00029FB08B1FEF701FD4FF480500A900AA909
:1017B0001348FFF757FB08B1FEF7F7FC1048FFF797
:1017C00066FC08B1FEF7F1FC0894099408A90C48DE
:1017D000FFF7DCFA08B1FEF7E8FC60200190029404
:1017E00003940594042201A90548FFF7E7FB08B11B
:1017F000FEF7DBFC0248FFF7A7FB0EB010BD0000B0
:101800001800002010B58AB00024089409941C2107
:1018100001A8FEF790FC17481549016040F2CF215E
:101820004160846044F61F61C16004618021816170
:10183000FFF72DFC08B1FEF7B8FC0894099408A93D
:101840000C48FFF7A3FA08B1FEF7AFFC6020019047
:10185000029403940594082201A90648FFF7AEFB01
:1018600008B1FEF7A2FC0348FFF76EFB0AB010BDFB
:10187000000400406000002010B50C480A490160D7
:101880004FF4E131416000218160C16001610C22AF
:1018900042618161C161FFF771FD002803D0BDE89D
:1018A0001040FEF782BC10BD00380140A8000020A7
:1018B000FEE7000070B50D46114C00280DD0012840
:1018C00014D002281BD1FFF7C1FE216800208863D5
:1018D000BDE870400BA000F007BBFFF799FE206841
:1018E0008563BDE8704007A000F0FEBAFFF772FE06
:1018F00020688563BDE8704002A000F0F5BA70BDB5
:10190000180000204C6566744D6F6E746F7220690C
:1019100073206368616E67652073706565640D0A86
:1019200000000000FEE7704708B507494FF4FA527F
:101930000968B1FBF2F14143009100BF0098411EDC
:101940000091FAD208BD0000100000207047FEF799
:10195000A3BE30B58FB0282105A8FEF7ECFB1421FB
:101960006846FEF7E8FB0121059108040690002473
:101970000794099102250C950D904FF4E0100E90FC
:1019800005A8FFF72DF808B1FEF70FFC0F20009017
:10199000019502944FF480600390049402216846FC
:1019A000FEF714FF002801D0FEF7FFFB0FB030BD9B
:1019B00070470000F0B50268164C174D174E4FF0F7
:1019C0008047A04205D0B84203D0A84201D0B0421F
:1019D00003D122F070034A681A43A04205D0B842EE
:1019E00003D0A84201D0B04203D122F44073CA68A8
:1019F0001A434B6922F080021A4302608A68C2626D
:101A00000A688262A04201D1096901630121416132
:101A1000F0BD0000002C0140000400400008004020
:101A200010B501F01F0101238B40046A9C4304623E
:101A3000036A8A401343036210BD10B5846824F41E
:101A40007F4442EA03220A432243826010BD826837
:101A500022F070020A4342F00701816070470000E3
:101A600030B5026A22F001020262036A42688469A8
:101A700024F0700424F003050C682C4323F00205C5
:101A80008B682B430D4DA84206D123F00805CB6887
:101A900043EA050323F0040309D122F4807222F4FF
:101AA00000724D6945EA02058A6942EA0502426010
:101AB000846149684163036230BD0000002C01402D
:101AC00030B5026A22F010020262036A4268846939
:101AD00024F4E04424F440740D6844EA052423F01F
:101AE00020038D6843EA05130D4DA84206D123F06B
:101AF0008003CD6843EA051323F0400309D122F4A3
:101B0000806222F400624D6942EA85028D6942EAF0
:101B100085024260846149688163036230BD0000D0
:101B2000002C014030B5026A22F480720262036A1E
:101B30004268C46924F0700424F003050C682C4347
:101B400023F400738D6843EA05230D4DA84206D1A6
:101B500023F40063CD6843EA052323F4806309D1AD
:101B600022F4805222F400524D6942EA05128D6936
:101B700042EA05124260C4614968C163036230BD34
:101B8000002C014030B5026A22F480520262036ADE
:101B90004268C46924F4E04424F440740D6844EAC3
:101BA000052423F400538D6843EA0533064DA8420B
:101BB00004D122F480424D6942EA85124260C46138
:101BC00049680164036230BD002C014010B5036A0E
:101BD000046A24F001040462846924F0F00444EAF5
:101BE000021423F00A020A438461026210BD10B598
:101BF000036A23F0100303628469036A24F47044C7
:101C000044EA023223F0A00343EA01118261016237
:101C100010BD10B5406A0021C185C184FFF7C7FA25
:101C200010BD0168CA6822F49072CA6001684A69EE
:101C300022F001024A61016B012904D10168CA68DE
:101C400022F01002CA60202180F83E1000210163BA
:101C5000704710B50168CA6822F04002CA602021AE
:101C600080F83D10FFF7B3FC002010BD08B590F8D8
:101C70003E10222901D0022008BD82684FF4805313
:101C80009A4201D1016921B1816A9A421DD052B1B3
:101C90000BE0816A02685268C2F308020A80816A16
:101CA000891C816209E002697AB10268526802F017
:101CB0007F020A70816A491C8162C18D491E090434
:101CC000090CC18505D0002008BD026852680A7061
:101CD000F0E70168CA6822F02002CA600168CA6899
:101CE00022F48072CA6001684A6922F001024A61E6
:101CF000202180F83E10016B012903D0FFF7F6FB8D
:101D0000002008BD002101630168CA6822F01002AA
:101D1000CA6001680A68D20602D50A68496800915B
:101D2000818DFFF743FAEBE770B50446206801693F
:101D3000E26821F4405111430161A1682069014327
:101D4000606901432068C26841F20C639A430A4308
:101D5000C26020684169A26921F440711143416168
:101D60001E492068884202D1FEF7F0FD01E0FEF72F
:101D7000DDFD00EBC00101EB001061686422890009
:101D8000B0FBF1F3B3FBF2F36FF018067343B0FB53
:101D9000F1F5B0FBF1F605EB8305322303EB0515F6
:101DA000B5FBF2F5B6FBF2F605F0F00505EB06150E
:101DB000B0FBF1F6B0FBF1F0B0FBF2F06FF0180100
:101DC000484306EB800003EB0010B0FBF2F0216803
:101DD00000F00F002844886070BD0000003801400A
:101DE00081628285C28500210164222280F83E2022
:101DF00080F83C100168CA6842F48072CA600168C9
:101E00004A6942F001024A610068C16841F020015C
:101E1000C1600020704790F83D10212901D00220B8
:101E200070478168B1F5805F01D1016961B1016AD4
:101E30004A1C0262026809785160C18C491E09047B
:101E4000090CC1840AD013E0016A02680988C1F351
:101E500008015160016A891C0162EEE70168CA68E5
:101E600022F08002CA600068C16841F04001C16090
:101E7000002070472DE9F04104460E46174698466B
:101E8000069D1DE0681C1BD02DB1FEF7FFFBA0EBEB
:101E90000800A84214D92068C16821F4D071C1603B
:101EA0002068416921F001014161202084F83D0052
:101EB00084F83E00002084F83C000320BDE8F08157
:101EC0002068006836EA000004D00020B842D9D06B
:101ED0000020F3E70120F9E70148FFF769B90000A6
:101EE000A8000020FEE70000014A024900F023B8E4
:101EF000591F0008140000200907090E002804DB00
:101F000000F1E02080F80014704700F00F0000F1AD
:101F1000E02080F8141D704702E008C8121F08C1B5
:101F2000002AFAD170477047002001E001C1121F5A
:101F3000002AFBD170472DE9F04116460F460446B2
:101F4000002503E03946B047641C6D1C207800284A
:101F5000F8D12846BDE8F08113B54FF6FF73012292
:101F600069460248FFF7D4FA00981CBDA80000207B
:101F7000FEF79AFBFFF7EDFCFFF7A4FBFFF77CFCF5
:101F8000FFF7F4FBFFF780FBFFF73CFC4FF47A739D
:101F9000062210A11148FFF7BBFA11A0FFF7A4FF1A
:101FA00004211548FFF7ACF808211448FFF7A8F8FA
:101FB000042213490948FFF781FA124D4FF40054E7
:101FC00021462846FEF752FBC820FEF745FA00F0EE
:101FD0001BF8F5E768656C6C6F000000A800002036
:101FE00053544D33322D52617370692D524F5372D9
:101FF00065626F7463617200180000206000002049
:10200000000000200010014038B500250095002098
:1020100016496B460C1D0A689206FCD522681A54B4
:10202000401CC0B20228F6D38DF8025010A16846B9
:10203000FEF78CF878B10FA16846FEF787F878B103
:102040000DA16846FEF782F8002803D10021022086
:10205000FFF730FC38BDC8210020FFF72BFC38BD4E
:10206000C8210120FFF726FC38BD000000380140E0
:10207000676F0000626B00007374000000000000D6
:102080000000000001020304060708090000000028
:1020900001020304B4200008000000201800000022
:1020A000181F0008CC200008180000206005000060
:1020B000281F0008000000000100000010000000C0
:0C20C000000000000024F40000000000FC
:04000005080000ED02
:00000001FF
