:020000040800F2
:10000000F80A002005010008712100080B1C0008F7
:10001000752000089D010008612A0008000000000A
:100020000000000000000000000000005522000851
:10003000FD0100080000000073210008572200089D
:100040001F0100081F0100081F0100081F01000810
:100050001F0100081F0100081F0100081F01000800
:100060001F0100081F0100081F0100081F010008F0
:100070001F0100081F010008A1010008AD010008D0
:10008000B9010008C50100081F0100081F01000890
:100090001F0100081F0100081F0100081F010008C0
:1000A0001F0100081F0100081F0100081F010008B0
:1000B0001F010008BD2200081F0100081F010008E1
:1000C0001F0100081F0100081F0100081F01000890
:1000D0001F010008F9290008552A00081F0100081F
:1000E0001F0100081F0100081F010008DFF810D0E1
:1000F00000F042F800480047312C0008AFF30080C0
:10010000F80A00200648804706480047FEE7FEE759
:10011000FEE7FEE7FEE7FEE7FEE7FEE7FEE7FEE7B7
:10012000B9220008ED000008D2B201E000F8012B6E
:10013000491EFBD270470022F6E710B513460A4667
:1001400004461946FFF7F0FF204610BD30B50B46B8
:10015000014600202022012409E021FA02F59D42F7
:1001600005D303FA02F5491B04FA02F52844151ECB
:10017000A2F10102F1DC30BD064C074D06E0E0685B
:1001800040F0010394E8070098471034AC42F6D3DE
:10019000FFF7B0FF102D0008302D0008FEE700002B
:1001A000014800F09DB80000E8050020014800F07B
:1001B00097B800002C060020014800F091B800001C
:1001C00070060020014800F08BB80000B406002043
:1001D00030B590F840500124AC40C56B6C600468A9
:1001E00063604368102B04D0036899600068C260A4
:1001F00030BD03689A600068C16030BD704772B658
:10020000FEE710B590F821100022022905D0042144
:10021000816380F82020012010BD01680B6823F065
:100220000E030B6001680B6823F001030B6090F86C
:100230004030C46B012101FA03F3636080F82110A0
:1002400080F82020104610BD10B5002490F8211031
:10025000022903D00421816301243DE001680A687A
:1002600022F00E020A6001680A6822F001020A60A8
:100270001A4A0168914201D1012121E0174A143242
:10028000914201D110211BE0144A2832914201D140
:10029000891515E0114A3C32914201D189140FE0D1
:1002A0000E4A5032914202D14FF4803108E00B4A9D
:1002B0006432914202D14FF4801101E04FF080711D
:1002C000064A083A5160012180F82110002180F887
:1002D0002010416B01B18847204610BD0800024044
:1002E0002DE9F05FC16B0A6801680B68046C4FF080
:1002F000040A0AFA04FA4E4D4E4E4F4FDFF83CC145
:10030000DFF83C81DFF83C911AEA020F31D05FEA56
:10031000437A2ED50A68920603D40A6822F00402B2
:100320000A600168A94201D1042119E0B14201D15A
:10033000402115E0B94202D14FF4806110E06145DF
:1003400002D14FF480410BE0414502D14FF48021AE
:1003500006E0494502D14FF4800101E04FF0806191
:10036000334A083A5160C16A00295FD0BDE8F05FA6
:1003700008474FF0020E0EFA04FE1EEA020F4FF07D
:10038000000A4FF0010B35D05FEA837E32D50A6850
:10039000920605D40A6822F00A020A6080F821B0A9
:1003A0000168A94201D1022119E0B14201D1202105
:1003B00015E0B94202D14FF4007110E0614502D15D
:1003C0004FF400510BE0414502D14FF4003106E0FB
:1003D000494502D14FF4001101E04FF00071144A79
:1003E000083A516080F820A0816A00291ED0BDE83B
:1003F000F05F08470825A540154217D01A0715D504
:100400000A6822F00E020A6090F84010C26B0BFAE4
:1004100001F15160C0F838B080F821B080F820A018
:10042000016B002902D0BDE8F05F0847BDE8F09FEE
:10043000080002401C00024030000240440002401C
:10044000580002406C00024030B5002827D0001D43
:10045000144A50F8041C14230A44B2FBF3F292002D
:10046000C263114A8263022242770A6843F6F0733C
:100470009A43D0E900342343D0E902452C43234377
:1004800004692343446923438469234313430B6072
:1004900000214163012242770177002030BD012015
:1004A00030BD0000F8FFFDBF0000024070B50446FB
:1004B000002594F8200001280CD0012084F82000A9
:1004C00094F821600020012E06D084F82000022537
:1004D000284670BD022070BD022684F82160A0630A
:1004E0002068066826F0010606602046FFF770FEC9
:1004F000E06A28B12068016841F00E01016009E05E
:100500002068016821F0040101602068016841F061
:100510000A0101602068016841F001010160D7E72C
:1005200070B5044600F016F90546601C02D0044878
:100530000078044400F00EF9401BA042FAD370BDCD
:100540000C0000202DE9F84F00240023DFF8C491AF
:100550004FF00F0809F1040A0AF1040B0BF1040E25
:10056000D1E00127A7403A40BA4275D1DFF8A8C1CF
:100570004D68A5EB0C0665452BD00DDC032D34D062
:1005800005DC35B3012D19D0022D2FD11BE0112D23
:1005900016D0122D2AD119E0B6F5881F19D006DC25
:1005A000B6F5803F15D0B6F5801F1FD111E0B6F526
:1005B000001F0ED0B6F5041F18D10AE0CB6815E075
:1005C000CB681B1D12E0CB6808330FE0CB680C33FF
:1005D0000CE08B6823B1012B04D00823476105E0B0
:1005E000042303E00823076100E00023FF2A01D869
:1005F000054601E000F1040502D84FEA840603E055
:10060000A4F108064FEA86062F6808FA06FC27EAD6
:100610000C0703FA06F647EA06072F604D68ED005F
:1006200070D53E4DAE6946F00106AE61AD6905F08C
:10063000010500953A4D24F003067719BE68A50719
:100640002D0F08FA05FC26EA0C06DFF8D8C0604535
:1006500003D14FF0000C17E054E0DFF8CCC0604548
:1006600002D14FF0010C0FE0DFF8C0C0604502D1AD
:100670004FF0020C08E0DFF8B8C0604502D14FF03F
:10068000030C01E04FF0040C0CFA05FC4CEA060CDC
:10069000C7F808C04D68ED0305D5D9F800501543DB
:1006A000C9F8005004E0D9F800509543C9F800504B
:1006B0004D68AD0305D5DAF800501543CAF800506F
:1006C00004E0DAF800509543CAF800504D68ED0296
:1006D00005D5DBF800501543CBF8005004E0DBF8FB
:1006E00000509543CBF800504D68AD0205D5DEF8BB
:1006F00000501543CEF8005004E0DEF8005095435A
:10070000CEF80050641C0A6832FA04F57FF429AF71
:10071000BDE8F88F000401400000111000100240F5
:100720000000014000080140000C014000100140A1
:1007300000140140C26821EA02030A4043EA024170
:1007400001617047002A01D001617047090401610D
:100750007047000001488068704700000C000020CE
:100760000248816802781144816070470C000020C3
:1007700010B50748016841F010010160032000F046
:1007800077F8002000F006F800F026F8002010BDF1
:100790000020024070B504460D4D4FF47A71287860
:1007A000B1FBF0F00B490968B1FBF0F000F03EFB43
:1007B00008B1012070BD102C07D200222146501E26
:1007C00000F036F86C60002070BD012070BD0000A4
:1007D0000C0000201800002008B50C48816941F089
:1007E00001018161816901F001010091C16941F05C
:1007F0008051C161C06900F0805000900449486890
:1008000020F0E06040F00070486008BD0010024039
:1008100000000140002809DB00F01F020121914087
:100820004009800000F1E020C0F80011704700008E
:10083000F0B40D460D4B1B68C3F30223C3F107044C
:10084000042C00D90424191D072901D2002300E03B
:10085000DB1E012606FA04F1491E294099409E40FC
:10086000761E16403143F0BC02F00CB90CED00E0EE
:1008700000F00701054A10684FF6FF03184040EAF0
:100880000120034908431060704700000CED00E0B0
:100890000000FA052DE9F04704460D46002C17D05C
:1008A000DFF83081D8F8000000F00700A84211D22C
:1008B000D8F8000020F007002843C8F80000D8F856
:1008C000000000F00700A84204D00120BDE8F08736
:1008D0000120FBE72068404E810712D5400703D571
:1008E000706840F4E06070602078000703D570689D
:1008F00040F4605070607068A16820F0F000084318
:1009000070602078C0072CD06068012806D00228CB
:1009100009D0316889070BD40120D7E731688903F2
:1009200006D40120D2E73168890101D40120CDE746
:10093000716821F0030101437160FFF70BFF074667
:1009400041F2883906E0FFF705FFC01B484501D991
:100950000320BBE77068616800F00C00B0EB810F0A
:10096000F1D1D8F8000000F00700A8420ED9D8F85D
:10097000000020F007002843C8F80000D8F8000065
:1009800000F00700A84201D001209FE7207840072F
:1009900005D57068E16820F4E06008437060207855
:1009A000000706D57068216920F4605040EAC10054
:1009B000706000F03FF87168084AC1F30311515CA0
:1009C000C8400749086007480068FFF7E3FE0020B9
:1009D0007CE700000020024000100240F82C0008D4
:1009E0001800002010000020014800687047000037
:1009F0001800002000B5FFF7F7FF04494968044AD2
:100A0000C1F30221515CC84000BD0000001002404B
:100A1000082D000800B5FFF7E7FF04494968044ABC
:100A2000C1F3C221515CC84000BD0000001002406B
:100A3000082D000885B014A090E80E00C068CDE92C
:100A400002230191049014A000680090134B596890
:100A5000134801F00C02042A10D0082A0ED101A874
:100A6000C1F38342805CC9030AD55968C1F3404190
:100A70001DF801100A4A5043B0FBF1F005B0704771
:100A800008494843FAE7000002030405060708097D
:100A90000A0B0C0D0E0F1010010200000010024096
:100AA00000127A0000093D002DE9F84F0446002CA1
:100AB0000ED02078D94DC0075ED06868C0F38100A1
:100AC00001280BD06868C0F38100022803D00CE035
:100AD0000120BDE8F88F6868C00306D52868800348
:100AE0004AD56068A8BB0120F3E76068B0F5803F95
:100AF00011D0A8B1B0F5A02F1BD0286820F4803009
:100B00002860286820F480202860606830B3FFF7F0
:100B100021FE06461EE0286840F480302860F4E795
:100B2000286820F480302860286820F4802028601D
:100B3000EBE7286840F480202860286840F4803083
:100B40002860E2E7FFF706FE801B642802D9032035
:100B5000BFE711E028688003F4D50DE0FFF7FAFD48
:100B6000064606E0FFF7F6FD801B642801D9032046
:100B7000AFE728688003F5D42078DFF8A4828007E7
:100B80004FF0010A4FF0000945D5686810F00C0FCE
:100B900007D06868C0F38100022812D16868C003DA
:100BA0000FD42868800704D52069012801D00120CE
:100BB0008FE72868616920F0F80040EAC1002860EA
:100BC00029E02069B8B1C8F800A0FFF7C3FD0646C8
:100BD00006E0FFF7BFFD801B022801D9032078E75C
:100BE00028688007F5D52868616920F0F80040EA98
:100BF000C10028600FE0C8F80090FFF7ABFD064683
:100C000006E0FFF7A7FD801B022801D9032060E75B
:100C100028688007F5D42078000726D58148A16987
:100C200099B1C0F800A0FFF795FD064606E0FFF772
:100C300091FD801B022801D903204AE7686A8007DA
:100C4000F5D5012001F096FA0FE0C0F80090FFF70B
:100C500081FD064606E0FFF77DFD801B022801D9D5
:100C6000032036E7686A8007F5D42078400773D5FB
:100C70000026E869C00008D4E86940F08050E861C7
:100C8000E86900F0805000900126DFF89CB1DBF8A5
:100C90000000C00514D4DBF8000040F48070CBF8ED
:100CA0000000FFF757FD074606E0FFF753FDC01BA6
:100CB000642801D903200CE7DBF80000C005F4D557
:100CC000E068012812D0B0B105281DD0286A20F0B4
:100CD00001002862286A20F004002862E06841F2DE
:100CE000883B28B3FFF736FD07461DE0286A40F031
:100CF00001002862F2E7286A20F001002862286AD1
:100D000020F004002862E9E7286A40F00400286225
:100D1000286A40F001002862E0E7FFF71BFDC01BD6
:100D2000584501D90320D4E6286A8007F5D50DE09F
:100D3000FFF710FD074606E0FFF70CFDC01B584506
:100D400001D90320C5E6286A8007F5D4012E03D116
:100D5000E86920F08050E861E069A0B36968C1F3F8
:100D60008101022946D0022805D0C8F86090FFF71B
:100D7000F1FC04463AE0C8F86090FFF7EBFC064649
:100D800006E0FFF7E7FC801B022801D90320A0E65C
:100D900028688001F5D4206AB0F5803F05D16868E5
:100DA000A16820F4003008436860D4E908010843D2
:100DB000696821F4741108436860C8F860A0FFF7FF
:100DC000C9FC044607E026E0FFF7C4FC001B02282C
:100DD00001D903207DE628688001F5D51BE0FFF7E7
:100DE000B9FC001B022801D9032072E628688001A3
:100DF000F5D410E001280CD06868226A00F4803134
:100E0000914204D1616A00F47010884203D001203D
:100E10005FE601205DE600205BE600000010024076
:100E200000004242800442420070004010B5401E63
:100E3000B0F1807F01D3012010BD4FF0E02460614C
:100E40000F21601701F01EFE0020A0610720206125
:100E5000002010BD7047704770B590F83C20012A03
:100E600025D0012680F83C60022280F83D200268EF
:100E70005468936824F070050C682C4354600D4C42
:100E80000268A24208D0B2F1804F05D00A4CA242BB
:100E900002D00A4CA24204D123F0800349681943CE
:100EA00091603C30467000210170002070BD02202E
:100EB00070BD0000002C014000040040000800400C
:100EC00010B50446002C03D094F83D0010B107E0A3
:100ED000012010BD002084F83C00204600F016F8E8
:100EE000022084F83D00211D206801F0EDF9012069
:100EF0003D3460726070A070E07020716071A0710C
:100F0000E07120722070002010BD000000B585B097
:100F10000021019102910391049101681748B1F1F8
:100F2000804F22D0164A91421DD1C16941F0020181
:100F3000C161C16901F002010091816941F00401C0
:100F40008161806900F0040000904020019001A9B7
:100F50000C48FFF7F7FA002211461D20FFF768FC46
:100F60001D20FFF757FC05B000BDC16941F001012C
:100F7000C161C06900F001000090F4E70010024078
:100F8000000400400008014090F83D10012901D004
:100F900001207047022180F83D100168CA6842F0C4
:100FA0000102CA6000680E49884208D0B0F1804F43
:100FB00005D00C49884202D00B49884209D181688A
:100FC00001F00701062908D0016841F00101016024
:100FD00003E0016841F0010101600020704700005A
:100FE000002C0140000400400008004070B5044699
:100FF00094F83C00012817D0012584F83C500220C9
:1010000084F83D002068826822F0770222F47F4253
:1010100082600868502831D00DDC20284DD005DCD6
:10102000B0B310284ED148E0022070BD302844D023
:10103000402847D137E060282BD0702806D0B0F583
:10104000805F3FD0B0F5005F3CD10BE0CB68D1E9C9
:101050000121206801F07BF92068816841F0770167
:1010600081602FE0CB68D1E90121206801F06FF9A0
:101070002068816841F48041816023E0CA68496842
:10108000206801F02DFA5021206801F06AF919E07A
:1010900013E0CA684968206801F060FA602120689E
:1010A00001F05FF90EE0CA684968206801F018FA9B
:1010B0004021206801F055F904E0226801461046FD
:1010C00001F04FF93C3465700020207070BD0000C5
:1010D00000680349884201D100F098BD70470000C4
:1010E0000004004070B505460C4695F83C00012808
:1010F0001CD0012085F83C00D2B1042A29D0082A4E
:1011000039D0D4E90012E368286801F06DFA286844
:10111000C16921F44061C1612868C169A26841EADE
:101120000221C161002085F83C0070BD022070BD25
:10113000D4E90012E368286801F0E4F928688169BD
:1011400021F00C01816128688169A26811438161E5
:10115000E8E7D4E90012E368286801F011FA28688A
:10116000816921F44061816128688169A26841EA4E
:1011700002218161D6E7D4E90012E368286801F012
:101180001AFA2868C16921F00C01C1612868C16997
:10119000A2681143C161C5E710B50446002C03D015
:1011A00094F83D0010B107E0012010BD002084F844
:1011B0003C00204600F015F8022084F83D00211D77
:1011C000206801F081F801203D3460726070A070E9
:1011D000E07020716071A071E071207220700020B9
:1011E00010BD704710B5044600290FD0042910D057
:1011F000082911D094F8410089B1042912D0082996
:1012000013D094F84520012814D111E094F83E0041
:10121000F2E794F83F00EFE794F84000ECE794F829
:101220004220F0E794F84320EDE794F84420EAE701
:10123000012A01D0012010BD0220A1B1042915D03E
:10124000082916D084F84100B1B1042917D0082923
:1012500018D084F84500C1B104291CD0082920D039
:101260000C2929D123E084F83E00EDE784F83F0003
:10127000EAE784F84000E7E784F84200EBE784F807
:101280004300E8E784F84400E5E72068C26842F0DC
:101290000202C26010E02068C26842F00402C2602C
:1012A0000AE02068C26842F00802C26004E02068D8
:1012B000C26842F01002C2600122206801F03AF8D0
:1012C0000E492068884208D0B0F1804F05D00C4903
:1012D000884202D00B49884209D1816801F0070198
:1012E000062908D0016841F00101016003E00168AE
:1012F00041F001010160002010BD0000002C014000
:10130000000400400008004070B5044620680169F0
:101310004FF00005C943890716D4C168C94389073E
:1013200012D4E91E016101202077206880698007BE
:1013300003D02046FFF7CCFE05E0204600F0DCF8A5
:10134000204600F069F9257720680169C9434907FB
:1013500018D4C168C943490714D46FF0040101616E
:10136000022020772068806910F4407F03D0204657
:10137000FFF7AEFE05E0204600F0BEF8204600F084
:101380004BF9257720680169C943090717D4C1685B
:10139000C943090713D46FF00801016104202077C5
:1013A0002068C069800703D02046FFF791FE05E062
:1013B000204600F0A1F8204600F02EF9257720689D
:1013C0000169C943C90618D4C168C943C90614D400
:1013D0006FF010010161082020772068C06910F4C7
:1013E000407F03D02046FFF773FE05E0204600F063
:1013F00083F8204600F010F9257720680169C94379
:10140000C90708D1C168C943C90704D1891E016150
:10141000204600F059F920680169C943090609D43A
:10142000C168C943090605D46FF0800101612046F7
:10143000FFF710FD20680169C943490609D4C16856
:10144000C943490605D46FF040010161204600F010
:1014500052F920680169C94389060BD4C168C943A0
:10146000890607D46FF0200101612046BDE8704075
:10147000FFF7F1BC70BD000010B586B000210291ED
:101480000391049105910068B0F1804F29D116486D
:10149000816941F004018161816901F004010191D8
:1014A000816941F008018161806900F008000190C4
:1014B000022402940394059402A90C48FFF742F811
:1014C000600202900394059402A90948FFF73AF8D4
:1014D0000849486820F4407040F0E06040F4007033
:1014E000486006B010BD0000001002400008014036
:1014F000000C014000000140704770B504460D46E5
:1015000094F83C0001280AD0012084F83C0042B144
:10151000042A1AD0082A2DD00C2A53D13EE00220EA
:1015200070BD2946206800F025FF2068816941F0E0
:10153000080181612068816921F0040181612068CE
:1015400081692A69114381613CE02946206800F0E5
:1015500041FF2068816941F40061816120688169EF
:1015600021F480618161206881692A6941EA022150
:10157000816127E02946206800F05EFF2068C1698C
:1015800041F00801C1612068C16921F00401C16115
:101590002068C1692A691143C16113E029462068A6
:1015A00000F07AFF2068C16941F40061C1612068E0
:1015B000C16921F48061C1612068C1692A6941EA79
:1015C0000221C161002084F83C0070BD10B50446C2
:1015D000002C03D094F83D0010B107E0012010BDAD
:1015E000002084F83C00204600F015F8022084F822
:1015F0003D00211D206800F067FE01203D3460722F
:101600006070A070E07020716071A071E071207254
:101610002070002010BD70477047000010B50446D0
:10162000002909D004290AD008290BD094F84100D8
:1016300001280AD0012010BD94F83E00F8E794F884
:101640003F00F5E794F84000F2E7022039B304299F
:1016500028D0082929D084F841000122206800F010
:1016600069FE16492068884203D1426C42F4004268
:1016700042642068884208D0B0F1804F05D01049FC
:10168000884202D00F49884212D1816801F00701D7
:10169000062911D0016841F0010101600CE084F8D5
:1016A0003E00DAE784F83F00D7E784F84000D4E74B
:1016B000016841F001010160002010BD002C0140D3
:1016C0000004004000080040704702460020002946
:1016D00008D0042909D008290AD00C2901D11068A2
:1016E000006C70471068406B70471068806B7047E3
:1016F0001068C06B70477047704710B5044620688B
:101700004169C1F3C01194F83D20212A0BD151B198
:10171000416921F080014161606B08B1FEF771FD04
:10172000204601F009F820684169C1F3801194F85E
:101730003E20222A0BD151B1416921F04001416183
:10174000A06B08B1FEF75DFD204600F0D0FF002041
:1017500010BD7047F8B5044622681068D168536917
:1017600000F00F05002D08D1860606D58E0604D59B
:101770002046BDE8F84000F0E8BF0026002D60D00C
:1017800003F0010501F490772F435AD0C20705D02A
:10179000CA0503D5226C42F001022264420705D536
:1017A000DA0703D0226C42F002022264820705D5D8
:1017B000DA0703D0226C42F004022264020707D544
:1017C00001F020022A4303D0226C42F00802226476
:1017D000226C002A2BD0800604D5880602D520462C
:1017E00000F0B3FF20684069C0F38010216C090746
:1017F00000D408B3204600F07AFF2068416949060A
:1018000016D5416921F040014161A06B60B14349A7
:101810004163A06BFEF718FD002808D0A06B416B58
:1018200001B0BDE8F04008472046FFF792FFF8BD41
:101830002046FFF78EFFF8BD2046FFF78AFF26649B
:10184000F8BD236B012B57D1C30655D5CB0653D515
:1018500010685068009050694FF0200340062DD565
:10186000A16B0868406880B20028E9D0A58D854248
:10187000E6D9E0858869202818D0D06820F48070E7
:10188000D0602068416921F001014161206841690F
:1018900021F04001416184F83E3026632068C16830
:1018A00021F01001C160A06BFEF7ABFCA08DE18DB3
:1018B000401A81B22046FFF71FFFF8BDA08DE18DD1
:1018C000401A81B2E08D0028F7D00029F5D0D06809
:1018D00020F49070D0602068426922F001024261D9
:1018E00084F83E3026632068C26822F01002C2608D
:1018F0002046FFF701FFF8BD020606D50A0604D50B
:101900002046BDE8F84001F015B84006F3D548067A
:10191000F1D52046BDE8F84000F001BF21260008BF
:1019200070B50446002C04D094F83D00002510B199
:1019300006E0012070BD84F83C50204600F022F8FB
:10194000242084F83D002068C16821F40051C16062
:10195000204600F059FF2068016921F4904101619F
:101960002068416921F02A0141612068C16841F481
:101970000051C1602564202084F83D0084F83E00B9
:10198000002070BD2DE9F04186B004460025029587
:10199000039504950595DFF868C12168594802222E
:1019A0000323594E80274FF01008614551D18169BA
:1019B00041F480418161816901F480410191816933
:1019C00041F004018161806900F00400019010027F
:1019D00002900392059302A93046FEF7B3FD30153D
:1019E00002900395049502A93046FEF7ABFD484EE0
:1019F00046483060C6F80480B560F76035617561AF
:101A0000B561F5613046FEF71FFD08B1FEF7F7FB43
:101A1000666374623D483E4E1430443630607560F3
:101A2000B560F76035617561B561F5613046FEF707
:101A30000BFD08B1FEF7E3FBA663746200221146BA
:101A40002520FEF7F5FE2520FEF7E4FE06B0BDE8F2
:101A5000F081DFF8C0C06145F8D1C16941F40031BF
:101A6000C161C16901F400310191816941F0040152
:101A70008161806900F004000190042002900392CB
:101A8000059302A93046FEF75DFD082002900395FC
:101A9000049502A93046FEF755FD1C481C4E28301F
:101AA000883630607560B560F76035617561B56125
:101AB000F5613046FEF7C8FC08B1FEF7A0FBA6634F
:101AC00074621248124E3C30CC363060C6F8048046
:101AD000B560F76035617561B561F5613046FEF757
:101AE000B3FC08B1FEF78BFB6663746200221146FB
:101AF0002620FEF79DFE2620FEF78CFEA6E70000BE
:101B0000003801400010024000080140440002403B
:101B1000E80500200044004090F83E30202B01D022
:101B20000220704759B152B190F83C30012B08D0D7
:101B3000012380F83C300023036300F0C1BE012084
:101B4000704702207047704770472DE9F8430446FC
:101B50000E4615461F4694F83D00202802D002206C
:101B6000BDE8F883C6B1BDB194F83C00012815D09A
:101B7000012084F83C004FF00009C4F84090212077
:101B800084F83D00FEF7E6FD8046A584E584A06864
:101B9000B0F5805F04D005E00120E1E70220DFE737
:101BA000206920B13546002684F83C9013E00025DA
:101BB000FAE74346002280212046009700F0E9FE24
:101BC00008B10320CCE79DB1216815F8010B4860EE
:101BD000E08C401EE084E08C0028EAD143460022DD
:101BE00040212046009700F0D4FE40B10320B7E723
:101BF00036F8020B2168C0F308004860E8E72020AF
:101C000084F83D000020ABE77047FEE72DE9F04186
:101C10003C4D3D4E0024287800280ED030684462A8
:101C20003068016A21F00A0101623068016A41F0FE
:101C3000020101622C70BDE8F08100213248FFF7FB
:101C400044FD81B2A9803068026A22F00A02026271
:101C50003068026A026201232B702A4AA1F588507B
:101C60001C38921DC82807D86B7000201454401CE3
:101C7000C0B20428FAD3DEE7A1F519405238C828CB
:101C800002D828206870D6E7687820B3202822D8A8
:101C9000A1F20466C82E13D8441EE61704EB56744E
:101CA000E610471E24F007043C1B12F806C0C4F1DE
:101CB000070403FA04F44CEA040C02F806C005E039
:101CC000A1F5E676C92E01D36C70B4E7401CC0B212
:101CD0006870212808D068782828ACD1A1F648017E
:101CE000C829A8D8AB70A6E751781078C943C9B203
:101CF0008842A0D1D1789078C943C9B288429AD19C
:101D0000AB7098E7000000206800002010B5084C78
:101D1000002208212046FEF715FD01221021204651
:101D2000FEF710FDBDE8104002A000F09BBE0000D1
:101D3000000C01404C6566744D6F746F72206973BE
:101D4000206261636B0D0A0010B5084C01229103FB
:101D50002046FEF7F7FC00224FF400412046FEF734
:101D6000F1FCBDE8104002A000F07CBE000C014078
:101D70004C6566744D6F746F7220697320676F0DC8
:101D80000A00000010B5084C002208212046FEF78A
:101D9000D9FC002210212046FEF7D4FCBDE81040FB
:101DA00002A000F05FBE0000000C01404C656674AC
:101DB0004D6F746F722069732073746F700D0A0019
:101DC00008B51548416941F001014161406900F0E1
:101DD00001000090002211460E20FEF729FD0E2082
:101DE000FEF718FD002211460F20FEF721FD0F20FF
:101DF000FEF710FD002211461020FEF719FD1020FD
:101E0000FEF708FD002211461120FEF711FDBDE886
:101E100008401120FEF7FEBC001002402DE9F04101
:101E200086B00024029403940494059422488169A6
:101E300041F010018161816901F010010191816916
:101E400041F020018161816901F0200101918169E6
:101E500041F004018161816901F00401019181690E
:101E600041F008018161806900F008000190DFF80D
:101E70004C804FF40055002229464046FEF762FC94
:101E80000F4F012278213846FEF75CFC02950126AF
:101E9000039604940225059502A94046FEF752FBDD
:101EA0007820029003960494059502A93846FEF71F
:101EB00049FB06B0BDE8F08100100240001001406F
:101EC000000C014010B58EB000240A940B940C94C1
:101ED0000D94089409941C2101A8FEF72CF92248BE
:101EE0004FF08041016041F61F4141608460322122
:101EF000C160046180218161FEF7E2FF08B1FEF755
:101F00007EF94FF480500A900AA91748FFF76EF83F
:101F100008B1FEF774F91448FFF758FB08B1FEF753
:101F20006EF90894099408A90F48FEF795FF08B1C7
:101F3000FEF765F960200190029403940594042251
:101F400001A90948FFF7D9FA08B1FEF758F90822A4
:101F500001A90548FFF7D1FA08B1FEF750F9024888
:101F6000FFF78AFA0EB010BD2000002010B58AB02D
:101F7000002406940794089409940494059400940A
:101F80000194029403941E481C490160472141605A
:101F900084604FF6FF71C160046180218161FEF7AA
:101FA0008FFF08B1FEF72BF94FF48050069006A979
:101FB0001348FFF71BF808B1FEF721F91048FFF7A7
:101FC000EBF808B1FEF71BF90494059404A90C483A
:101FD000FEF742FF08B1FEF712F9009401200190CC
:101FE000029403200390002269460548FFF77AF81F
:101FF000002801D0FEF703F90AB010BD000400402C
:102000006800002010B50C480A4901604FF4E13126
:10201000416000218160C16001610C2242618161E7
:10202000C161FFF77DFC002803D0BDE81040FEF73A
:10203000E6B810BD003801406005002010B50C481E
:102040000A4901604FF4E131416000218160C160C3
:1020500001610C2242618161C161FFF761FC0028CE
:1020600003D0BDE81040FEF7CAB810BD00440040E0
:10207000A4050020FEE700002DE9F0410C461546BE
:1020800000273A4E4FF4FA7807280DD2DFE800F027
:10209000040E172B3F455900FFF756FE00F09CF841
:1020A000306884633068C563BDE8F081FFF72EFEB9
:1020B00000F072F8306884633068C563F4E7FFF7B6
:1020C00043FE00F0A7F8306884633068C56340467B
:1020D000FEF726FAFFF756FE00F09CF8306887639B
:1020E0003068C763E0E7FFF74DFE00F075F8306831
:1020F00084633068C5634046FEF712FAFFF742FE7C
:1021000000F088F8306887633068C763CCE7FFF772
:1021100039FEBDE8F04100F07DB8FFF733FE00F076
:102120003BF8306884633068C5634046FEF7F8F9D1
:10213000FFF728FE00F06EF8306887633068C763E9
:10214000B2E7FFF7E3FD00F065F8306884633068BC
:10215000C5634046FEF7E4F9FFF714FE00F05AF8B5
:10216000306887633068C7639EE700002000002066
:10217000FEE7704708B507494FF4FA520968B1FB0A
:10218000F2F14143009100BF0098411E0091FAD244
:1021900008BD00001800002010B5084C00222021C6
:1021A0002046FEF7CFFA012240212046FEF7CAFA68
:1021B000BDE8104002A000F055BC0000000C01403A
:1021C00052696768744D6F746F7220697320626121
:1021D000636B0D0A0000000010B5084C012220219D
:1021E0002046FEF7AFFA002240212046FEF7AAFA69
:1021F000BDE8104002A000F035BC0000000C01401A
:1022000052696768744D6F746F7220697320676FCD
:102210000D0A000010B5084C002220212046FEF7D0
:1022200091FA002240212046FEF78CFABDE81040CA
:1022300002A000F017BC0000000C01405269676862
:10224000744D6F746F722069732073746F700D0A10
:10225000000000007047FEF783BA30B58FB0282128
:1022600005A8FDF768FF14216846FDF764FF01210A
:1022700005910804069000240794099102250C9505
:102280000D904FF4E0100E9005A8FEF70DFC08B17C
:10229000FDF7B5FF0F200090019502944FF4806088
:1022A0000390049402216846FEF7F4FA002801D056
:1022B000FDF7A5FF0FB030BD704700000148FFF7E4
:1022C00023B8000068000020F0B50268164C174DD6
:1022D000174E4FF08047A04205D0B84203D0A84225
:1022E00001D0B04203D122F070034A681A43A042E1
:1022F00005D0B84203D0A84201D0B04203D122F4A5
:102300004073CA681A434B6922F080021A43026084
:102310008A68C2620A688262A04201D109690163C7
:1023200001214161F0BD0000002C0140000400408B
:102330000008004010B501F01F0101238B40046A22
:102340009C430462036A8A401343036210BD10B5C4
:10235000846824F47F4442EA03220A4322438260D1
:1023600010BD826822F070020A4342F007018160CA
:102370007047000030B5026A22F001020262036A6F
:102380004268846924F0700424F003050C682C432F
:1023900023F002058B682B430D4DA84206D123F094
:1023A0000805CB6843EA050323F0040309D122F4AE
:1023B000807222F400724D6945EA02058A6942EA98
:1023C00005024260846149684163036230BD0000D8
:1023D000002C014030B5026A22F010020262036A4A
:1023E0004268846924F4E04424F440740D6844EAAB
:1023F000052423F020038D6843EA05130D4DA84200
:1024000006D123F08003CD6843EA051323F040038F
:1024100009D122F4806222F400624D6942EA850209
:102420008D6942EA85024260846149688163036282
:1024300030BD0000002C014030B5026A22F48072E9
:102440000262036A4268C46924F0700424F0030540
:102450000C682C4323F400738D6843EA05230D4D6B
:10246000A84206D123F40063CD6843EA052323F490
:10247000806309D122F4805222F400524D6942EA6D
:1024800005128D6942EA05124260C4614968C16360
:10249000036230BD002C014030B5026A22F4805244
:1024A0000262036A4268C46924F4E04424F440747C
:1024B0000D6844EA052423F400538D6843EA05338C
:1024C000064DA84204D122F480424D6942EA8512A9
:1024D0004260C46149680164036230BD002C014060
:1024E00010B5036A046A24F001040462846924F0CC
:1024F000F00444EA021423F00A020A4384610262EF
:1025000010BD000070B5046A24F0010404628469FF
:10251000056A0F4EB04208D0B0F1804F05D00D4E85
:10252000B04202D00C4EB04203D124F00304144355
:1025300001E044F0010424F0F0041A0744EA1262B6
:1025400025F00A0301F00A0119438261016270BD9E
:10255000002C0140000400400008004010B5036A50
:1025600023F0100303628469036A24F4704444EA8C
:10257000023223F0A00343EA01118261016210BD1F
:1025800030B5046A24F0100404628569046A25F4F5
:10259000407545EA022222F470454FF6FF7202EAC6
:1025A00003322A4324F0A003A02404EA01111943B2
:1025B0008261016230BD30B5046A24F48074046223
:1025C000C469056A24F00304144324F0F0041A07D4
:1025D00044EA126225F400734FF4007404EA012106
:1025E0001943C261016230BD30B5046A24F48054DD
:1025F0000462C569046A25F4407545EA022222F4A2
:1026000070454FF6FF7202EA03322A4324F4005366
:102610004FF4005404EA01311943C261016230BD34
:1026200010B5406A0021C185C184FFF792F810BD42
:1026300070B5446A20684069C0F3C01094F83D103A
:102640000025212904D118B1E584204600F074F852
:1026500020684069C0F3801094F83E10222904D10C
:1026600018B1E585204600F042F8206C40F01000DB
:1026700020642046FFF76DF870BD10B50146486A2A
:102680000968096889061BD40021C1850168CA68E8
:1026900022F48072CA6001684A6922F001024A612C
:1026A00001684A6922F040024A61202180F83E1008
:1026B000016B012904D10168CA6822F01002CA60C6
:1026C000016B012902D0FFF73EFA10BD818DFFF7A3
:1026D00013F810BD10B5406A016B012902D0FFF755
:1026E00033FA10BD818D4908FFF706F810BD016867
:1026F000CA6822F49072CA6001684A6922F0010235
:102700004A61016B012904D10168CA6822F01002F4
:10271000CA60202180F83E1000210163704710B587
:102720000168CA6822F04002CA60202180F83D108A
:10273000FFF76AFA002010BD0168CA6822F0C002E3
:10274000CA60202180F83D10704708B590F83E100F
:10275000222901D0022008BD82684FF480539A429A
:1027600001D1016921B1816A9A421DD052B10BE0B9
:10277000816A02685268C2F308020A80816A891C71
:10278000816209E002697AB10268526802F07F0250
:102790000A70816A491C8162C18D491E0904090CB5
:1027A000C18505D0002008BD026852680A70F0E7B4
:1027B0000168CA6822F02002CA600168CA6822F46F
:1027C0008072CA6001684A6922F001024A612021D0
:1027D00080F83E10016B012903D0FFF7B4F9002007
:1027E00008BD002101630168CA6822F01002CA60B6
:1027F00001680A68D20602D50A6849680091818D8D
:10280000FEF77AFFEBE7000070B504462068016927
:10281000E26821F4405111430161A168206901433C
:10282000606901432068C26841F20C639A430A431D
:10283000C26020684169A26921F44071114341617D
:102840001E492068884202D1FEF7E4F801E0FEF755
:10285000D1F800EBC00101EB00106168642289002F
:10286000B0FBF1F3B3FBF2F36FF018067343B0FB68
:10287000F1F5B0FBF1F605EB8305322303EB05150B
:10288000B5FBF2F5B6FBF2F605F0F00505EB061523
:10289000B0FBF1F6B0FBF1F0B0FBF2F06FF0180115
:1028A000484306EB800003EB0010B0FBF2F0216818
:1028B00000F00F002844886070BD0000003801401F
:1028C00037B582B004461346039AA262A385002559
:1028D0002564222084F83E00A16B13488862A16B16
:1028E0001248C862A16B12480863A06B4563216857
:1028F000A06B091DFDF7DAFD2068016841680191B0
:1029000084F83C50C16841F48071C160206841691D
:1029100041F0010141612068416941F0400141619C
:1029200005B0002030BD00007B260008D526000839
:102930003126000890F83D10212901D0022070476F
:102940008168B1F5805F01D1016961B1016A4A1CFA
:102950000262026809785160C18C491E0904090CA1
:10296000C1840AD013E0016A02680988C1F3080132
:102970005160016A891C0162EEE70168CA6822F0B1
:102980008002CA600068C16841F04001C160002057
:1029900070472DE9F04104460E4617469846069DBD
:1029A0001DE0681C1BD02DB1FDF7D4FEA0EB080084
:1029B000A84214D92068C16821F4D071C160206890
:1029C000416921F001014161202084F83D0084F833
:1029D0003E00002084F83C000320BDE8F081206820
:1029E000006836EA000004D00020B842D9D00020A8
:1029F000F3E70120F9E7000008B511480068016815
:102A0000C1F3001100290FD00168406800900C4804
:102A1000FEF773FE0B48006840680B49C0F516705E
:102A200008700A49012008704FF4167208490448DA
:102A3000FFF772F8BDE808400148FEF78BBE0000C2
:102A4000600500202C0600200A0000200B0000205A
:102A5000B00000200148FEF77DBE0000A405002064
:102A6000FEE700000FB4054B10B503A9044A029815
:102A700000F028F810BC5DF814FB0000192C0008C9
:102A80001C0000200907090E002804DB00F1E020EB
:102A900080F80014704700F00F0000F1E02080F88B
:102AA000141D704702E008C8121F08C1002AFAD19D
:102AB00070477047002001E001C1121F002AFBD1BE
:102AC000704700002DE9FF4F89B09B460446002562
:102AD00006E025280BD05A460B999047641C6D1CC4
:102AE00020780028F5D10DB02846BDE8F08F0027EA
:102AF000B8460122474900E0074314F8013F203B54
:102B000002FA03F00842F7D120782E2819D114F8E0
:102B1000010F47F004072A280ED06FF02F0220780B
:102B2000A0F1300109290CD808EB880102EB410122
:102B300000EB0108641CF2E70A98641C50F8048B4F
:102B40000A9020780028CED0642808D0692806D0C2
:102B500075281ED05A460B9990476D1C58E00A996B
:102B60004FF00A0901C90A91002802DA40422D21DA
:102B700002E0390504D52B218DF82010012103E056
:102B8000F90704D02021F7E78A4608AE0DE00021BE
:102B9000FAE70A994FF00A0901C90A91F7E749468D
:102BA000FDF7D4FA303106F8011D0028F7D1ADEB5E
:102BB000060000F12009780701D44FF00108C8454C
:102BC00002DDA8EB090000E000208046002706E0B7
:102BD00008A85A46C05D0B9990476D1C7F1C57454D
:102BE000F6DB04E030205A460B9990476D1CB8F193
:102BF0000001A8F10108F5DC05E016F8010B5A46C2
:102C00000B9990476D1CB9F10001A9F10109F4DCA1
:102C1000641C65E70928010013B54FF6FF73012214
:102C200069460248FEF791FF00981CBD6005002030
:102C3000FDF79EFDFFF711FBFFF7F0F8FFF7E2F954
:102C4000FFF740F9FFF7BCF8FFF7F8F9FFF78EF947
:102C50001EA0FFF707FF04212048FEF7DFFC082134
:102C60001E48FEF7DBFC4FF400511D48FDF762FDE6
:102C70001C48FEF789F900211A48FEF7B3FA1948F3
:102C80000068C16841F00101C16017480068C1686F
:102C900041F01001C1604FF41674224613491248E6
:102CA000FEF73AFF12480068C16841F01001C160A8
:102CB000224610490E48FEF72FFF4FF47A74214642
:102CC0000A460020FFF7D8F9F9E7000053544D33C6
:102CD000327265626F746361720000002000002030
:102CE000001001406800002060050020B0000020B6
:102CF000A4050020080300200000000000000000E0
:102D00000102030406070809000000000102030491
:102D1000302D00080000002020000000A42A000838
:102D2000502D000820000020D80A0000B42A000816
:102D30000100000000000000000000000100000091
:102D400010000000000000000024F400000000005B
:04000005080000ED02
:00000001FF
