:020000040800F2
:10000000301C00209D0100089D3700089F2B000830
:1000100099370008130900087D3E00080000000021
:1000200000000000000000000000000005010008C2
:1000300017090008000000004901000831380008D5
:10004000B7010008B7010008B7010008B7010008B0
:10005000B7010008B7010008B7010008B7010008A0
:10006000B7010008B7010008B7010008B701000890
:10007000B7010008B7010008B7010008B701000880
:10008000B7010008B7010008B7010008B701000870
:10009000B7010008B7010008B7010008B701000860
:1000A000B7010008B7010008B7010008B701000850
:1000B000B7010008CD380008B7010008B7010008F3
:1000C000B7010008B7010008B7010008B701000830
:1000D000B7010008B7010008053E0008B701000895
:1000E000B7010008B7010008B7010008DFF810D019
:1000F00000F0ACFB00480047A54A0008AFF30080C1
:10010000301C0020224B19680868B0E8F00F80F31B
:100110000988BFF36F8F4FF0000080F311884EF015
:100120000D0E70470000000006480068006880F36C
:10013000088862B661B6BFF34F8FBFF36F8F00DFE1
:1001400000BF00BF08ED00E0EFF30980BFF36F8F41
:100150000F4B1A6820E9F00F106008B54FF05000FF
:1001600080F31188BFF34F8FBFF36F8F06F056FAFD
:100170004FF0000080F31188BDE808401968086856
:10018000B0E8F00F80F30988BFF36F8F704700BFAE
:100190003C000020EFF305807047000006488047D0
:1001A00006480047FEE7FEE7FEE7FEE7FEE7FEE75C
:1001B000FEE7FEE7FEE7FEE7CB380008ED000008AB
:1001C000202A04DB203A21FA02F00021704721FAAC
:1001D00002F3D040C2F12002914008431946704713
:1001E000A0F14101192900D82030704740EA0103ED
:1001F0009B0703D009E008C9121F08C0042AFAD2DD
:1002000003E011F8013B00F8013B521EF9D27047A0
:10021000D2B201E000F8012B491EFBD27047002248
:10022000F6E710B513460A4604461946FFF7F0FFF5
:10023000204610BD30B505462A460B4612F8010B84
:1002400013F8014B08B1A042F8D01CB1002802D02D
:100250006D1CF1E7284630BDCAB2401E10F8011FE0
:100260008A4202D00029F9D100207047421C10F8C0
:10027000011B0029FBD1801A704710B5044600E02D
:10028000401C0378002BFBD100E0401C521E04D31D
:1002900011F8013B0370002BF7D1002101702046BB
:1002A00010BD30B505460020034600E05B1C9342BC
:1002B00005D2EC5CC85C201A01D1002CF6D130BD0F
:1002C0002DE9FE4F804681EA0300C00F0C460090E6
:1002D00021F0004123F00045B8EB0200A94105D20E
:1002E0004046214690461C460B46024623F00040FD
:1002F000104347D0270DC7F30A00C3F30A510290F9
:10030000401A019040286BDAC3F3130040F4801BBD
:100310000098924620B10023D2EB030A63EB0B0B4B
:1003200001985946C0F14002504600F072F9064665
:100330000D4650465946019A00F07AF910EB080034
:100340006141002487EA115284EAE7731A4340D0DE
:10035000009A62B3019A012A4FEA075215DC001B8A
:1003600061EB02014FF0004202EA0752CDE9004280
:10037000001C41F5801132462B4600F07AF903B09B
:10038000BDE8F08F40462146F9E7001B61EB020112
:10039000001C41F5801300185B412018A2F50017DE
:1003A00047EB030140EAD570B6196D4111E06D08C5
:1003B0004FEA360645EAC0754FEA0752001B61EB6B
:1003C0000201001C41F5801149084FEA3000001974
:1003D000514132462B4603B0BDE8F04F00F03AB928
:1003E0000098012240000023D0EB020263EBE0738F
:1003F000009821464FEAE074B8EB000061EB04017D
:10040000E9E783F000435BE781F0004158E72DE91D
:10041000FE4F81EA030404F0004421F000410094FF
:100420004FF0000B23F0004350EA01045ED052EA83
:1004300003045BD0C3F30A54C1F30A552C44A4F25D
:10044000F3340194A0FB0254C1F3130141F4801171
:10045000C3F3130343F4801301FB024400FB034E78
:10046000840A970A44EA815447EA8357A4FB076841
:1004700002958D0A05FB07854FEA932C04FB0C546B
:100480002705029D4FEA065847EA1637B5EB0805DF
:100490006EEB070C870E920E47EA811742EA831231
:1004A000A7FB0201B6EB0B0164EB00042B0D43EA42
:1004B0000C335E1844EB1C50DA465146E7FB020150
:1004C000C5F313044FEA0B3343EA14534FEA0432E3
:1004D000019C43EA0603A4F10C040294009CCDE9BC
:1004E00000B400F0C6F803B0BDE8F08F002001466C
:1004F000F9E70EB5C10F80EAE0700844CA07002191
:1005000040F233438DE80E000A460B4600F0B1F886
:1005100003B000BD70B5C1F30A5201F000450024DC
:10052000C1F3130140F2FF3341F480119A4201DA22
:10053000002070BD40F233439A42A2F2334203DC02
:100540005242FFF73DFE00E090402C43F1D0404284
:1005500070BD000030B5041E71F1000404DB4FF0E3
:100560000044404264EB0101141E73F1000405DBFA
:100570001C464FF00043524263EB0403994208BF0C
:10058000904230BD30B50B460146002020220124A8
:1005900009E021FA02F59D4205D303FA02F5491B51
:1005A00004FA02F52844151EA2F10102F1DC30BD67
:1005B0002DE9F05F0546002092469B468846064698
:1005C000814640241BE02846414647462246FFF725
:1005D000F7FD53465A46C01A914110D311461846AA
:1005E000224600F016F82D1A67EB01084F46224606
:1005F0000120002100F00DF817EB00094E41201EEC
:10060000A4F10104DFDC484631462A464346BDE8F2
:10061000F09F202A04DB203A00FA02F10020704704
:100620009140C2F1200320FA03F319439040704730
:10063000202A06DBCB17203A41FA02F043EAE073A6
:1006400006E041FA02F3D040C2F120029140084393
:100650001946704710B5141E73F1000408DA401CE7
:1006600041F1000192185B411A4301D120F00100D1
:1006700010BD2DE9F04D92469B4611B1B1FA81F2C1
:1006800002E0B0FA80F220329046FFF7C2FF044643
:100690000F4640EA0A0041EA0B0153465A46084316
:1006A00013D0114653EA010019D0C8F14002504658
:1006B000FFF786FD05460E46504659464246FFF76F
:1006C000A8FF084305D0012004E020463946BDE8D4
:1006D000F08D0020054346EAE0762C4337430A9824
:1006E0006305E40AA0EB08000022FD0A44EA47542F
:1006F0000A3002D500200146E9E7010510196941D9
:10070000DDE9084500196941BDE8F04DA2E72DE992
:10071000F04D81EA030404F0004B21F0004514463B
:100720004FF0000A23F0004150EA050220D054EABD
:1007300001021DD0C5F30A570246C5F31303C1F3E6
:100740001300C1F30A5640F4801543F48013A7EB5D
:100750000608101BD64608F2FD3873EB050002D3DD
:1007600008F1010801E092185B41B8F1000F03DACB
:1007700000200146BDE8F08D00204FF480110646B0
:1007800084460EE0171B73EB050705D3121B63EBC2
:10079000050306434CEA010C49084FEA3000921861
:1007A0005B4150EA0107EDD152EA030012D082EA20
:1007B000040083EA0501084305D0101BAB4106D2B3
:1007C0000122002306E000224FF0004302E06FF018
:1007D000010253101AEB06004CEB085110EB0A0013
:1007E00041EB0B01BDE8F04DFFF734BF70B521F0D0
:1007F000004303430CD0C1F30A550024D5EB040594
:1008000064EB0403D617AD1AB34102DB00200146A6
:1008100070BD201841EB025170BDC1F30A52C1F303
:10082000130140F2FF3341F480119A4202DA0020B2
:100830000146704740F233439A42A2F2334202DC4F
:100840005242FFF7BDBCFFF7E4BE0000064C074D67
:1008500006E0E06840F0010394E807009847103490
:10086000AC42F6D3FFF746FC2C6C00084C6C000839
:100870002DE9F04D00231A461B1A8A4103DB0020A4
:100880000146BDE8F08DC1F30A52C1F3130141F4F2
:1008900080154FF0000BD10702D100186D41521E98
:1008A0000027044640F2FF11384601EB620A3E463B
:1008B0008046024600204FF48011FFF781FCC219E8
:1008C0007141BB1846EB0100B4EB030C75EB000C57
:1008D00004D3E41A65EB000517460E46241908F107
:1008E00001006D4180463428E3DDF91946EB06002E
:1008F000091BA84103D24FF0FF32134601E000224A
:1009000013461BEB070046EB0A51BDE8F04DFFF71D
:10091000A1BE00BFFEE7704730B58BB00020079046
:10092000089009900A9001252BA32DA237A139A088
:1009300003F0A6FA07A8002102910391CDE9041063
:1009400000912B0224A2019125A130A002F07AF996
:1009500000283BD1089A91B2079800F0B9FCFA2020
:1009600000F06EFB0446002C2CD0204602F0F6FD71
:10097000022827D1204602F0C1FC06281DD2DFE85C
:1009800000F003080C1014182EA003F079FA0025CB
:1009900017E031A003F074FA13E036A003F070FA08
:1009A0000FE03DA003F06CFA0BE043A003F068FAFF
:1009B00007E04AA003F064FA03E053A003F060FAF2
:1009C00000BF00BF07A802F0ECF802E055A003F05A
:1009D00057FA28460BB030BD64657669636532000E
:1009E000353837464630323045383046433935445D
:1009F0003145424530383634413645373334443456
:100A0000354636443644384500000000526179438B
:100A100030320000454D51585F4465764C696E6B2D
:100A20000D0A50524F49443A2025732C094155492B
:100A3000463A2025732C0944455649443A25730DFE
:100A40000A000000546970733A09C1ACBDD3B3C940
:100A5000B9A60D0A000000005741524E3A09C1AC38
:100A6000BDD3CAA7B0DCA3BAD0ADD2E9B4EDCEF302
:100A70000D0A00005741524E3A09C1ACBDD3CAA776
:100A8000B0DCA3BAB7C7B7A8B5C4636C69656E74A8
:100A900069640D0A000000005741524E3A09C1AC8A
:100AA000BDD3CAA7B0DCA3BAB7FECEF1C6F7CAA7BA
:100AB000B0DC0D0A000000005741524E3A09C1ACAB
:100AC000BDD3CAA7B0DCA3BAD3C3BBA7C3FBBBF2D9
:100AD000C3DCC2EBB4EDCEF30D0A00005741524E19
:100AE0003A09C1ACBDD3CAA7B0DCA3BAB7C7B7A88F
:100AF000C1B4BDD328B1C8C8E7746F6B656EB7C702
:100B0000B7A8290D0A0000004552523A09C1ACBDF0
:100B1000D3CAA7B0DCA3BACEB4D6AAB4EDCEF30D37
:100B20000A0000005741524E3A094D5154545F504B
:100B300061636B6574436F6E6E65637420466169B3
:100B40006C65640D0A00000070B588B005460C465F
:100B5000002004900590069007902046FFF786FB42
:100B6000064604A80121002200923346CDE9012166
:100B70000390224629460A2002F0B4F938B9059AB2
:100B800091B2049800F0A4FB04A802F00AF808B09F
:100B900070BD00002DE9F0478EB0814600200A901C
:100BA0000B900C900D9009900890079006900025EE
:100BB000059000267D4903C9CDE90301A8464846B2
:100BC00002F0CCFC0546E81E0D2873D2DFE800F0E9
:100BD000177C849CB6D6BED6CAD6D6D6070006AB3E
:100BE00009AA08A9484602F043FB064636B9BDF8F3
:100BF00018306FA0DDE9081203F042F9C1E0754832
:100C000005A906AA09ABCDE90021029007AA08A907
:100C1000484602F083FB0646002E54D1BDF818303A
:100C20006DA0DDE9081203F02BF9099803F0A4FE8A
:100C300007463FB903F07AFE8246514671A003F0A1
:100C40001FF93DE00AE003A850F82810384603F0E9
:100C500073FE044604B104E008F10108B8F1190F6D
:100C6000F1DB00BF6CA1206AFFF7E4FA00B3606912
:100C7000012808D140F2DC506949096888630120E5
:100C80006849086007E04FF448706549096888635F
:100C9000012064490860634863A10268674803F063
:100CA000FFF8664966A0FFF74FFF00205D49086026
:100CB00034B100E062E066A06269216A03F0E0F806
:100CC000384603F007FE5CE0484602F007FC10B926
:100CD00068A003F0D5F854E0484602F01DFC90B936
:100CE0006CA003F0CDF80AA90A2002F0FBF950B974
:100CF0006EA003F0C5F80B9A91B20A9800F0E8FADA
:100D00000AA801F04EFF3CE032480188484602F054
:100D100012FC90B96BA003F0B3F80AA90A2002F004
:100D2000BDF950B96DA003F0ABF80B9A91B20A98D7
:100D300000F0CEFA0AA801F034FF22E0484602F0A3
:100D4000DCFB10B96CA003F09BF81AE0484602F0F7
:100D50003FFC18B96EA003F093F802E073A003F013
:100D60008FF80EE0484602F04DFC18B976A003F06B
:100D700087F802E07BA003F083F802E04FF0FF3633
:100D800000BF00BF00F032F9701C10B90EB0BDE812
:100D9000F0870F2D01D0032D05D1089803F05AFEDE
:100DA000099803F057FE00BFF0E70000086B000849
:100DB000636D6469643A2025732C207265713A2052
:100DC00025732C207265715F6C656E3A2025640D69
:100DD0000A00000012000020746F7069633A202539
:100DE000732C20207061796C6F61643A2025732C1C
:100DF000207061796C6F61645F6C656E3A20256468
:100E00000D0A00004572726F723A206265666F7259
:100E1000653A5B25735D0A006F70656E0000000027
:100E200028080020080000207B2253657453746159
:100E30007465223A2025647D00000000A80400208B
:100E40006D6573736167652F6465766963653200EC
:100E50006A736F6E5F737472696E67203D202573CD
:100E60002C6A736F6E5F696E74203D2025640D0AD5
:100E700000000000546970733A094D5154542050D9
:100E800075626C6973682053656E64204F4B0D0A60
:100E900000000000546970733A095265762050755D
:100EA000626C6973685265630D0A0000546970735F
:100EB0003A0953656E64205075626C6973685265B7
:100EC0006C0D0A00546970733A09526576205075AA
:100ED000626C69736852656C0D0A00005469707326
:100EE0003A0953656E64205075626C697368436F8C
:100EF0006D700D0A00000000546970733A09526564
:100F000076205075626C697368436F6D700D0A00CE
:100F1000546970733A094D51545420537562736388
:100F200072696265204F4B0D0A00000054697073AE
:100F30003A094D5154542053756273637269626566
:100F4000204572720D0A0000546970733A094D51C0
:100F5000545420556E537562736372696265204FF5
:100F60004B0D0A00546970733A094D515454205581
:100F70006E537562736372696265204572720D0A01
:100F80000000000070B586B004460D460026002023
:100F9000029003900490059006E054F826100DA0EE
:100FA00002F06EFF701CC6B2AE42F6DB02A82B4602
:100FB000224600210090142002F0B8F838B9039AB4
:100FC00091B2029800F084F902A801F0EAFD06B09F
:100FD00070BD000053756273637269626520546F5F
:100FE0007069633A2025730D0A00000010B54FF4B4
:100FF00080610348FFF713F900200249088010BD03
:10100000A80000200400002010B508A002F038FF5E
:101010000AA000F0B5F9322000F060FA07A000F055
:10102000AFF9322000F05AFA10BD0000CDCBB3F674
:10103000CDB8B4ABC4A3CABD0D0A00002B2B2B0046
:1010400070B50546002400BF00F0A8F980B90DA1D5
:101050000E48FFF7EFF8044654B13A212046FFF757
:10106000FBF8044614B1641C204670BD0020FCE768
:10107000052000F033FA681E85B2002DE4DC002064
:10108000F3E700004950442C00000000A8000020B5
:1010900010B5FFF7ABFFFFF7B7FF43A002F0F0FE7C
:1010A000C82243A143A000F023F94FF4FA7000F0E6
:1010B00015FA42A002F0E4FEC8223DA142A000F0D1
:1010C00017F94FF4FA7000F009FAFFF78FFF41A00B
:1010D00002F0D6FE03E04FF4FA7000F0FFF9C822E8
:1010E00033A13FA000F004F90028F4D140A002F0A1
:1010F000C7FE03E04FF4FA7000F0F0F9C8222CA10B
:101100003FA000F0F5F80028F4D1FFF76FFF40A0F2
:1011100002F0B6FE03E04FF4FA7000F0DFF9C822E7
:101120003EA140A000F0E4F80028F4D1FFF75EFFF4
:1011300044A002F0A5FE03E04FF4FA7000F0CEF9EF
:10114000C82244A145A000F0D3F80028F4D14EA055
:1011500002F096FE02E0C82000F0C0F9C82214A1F7
:101160004CA000F0C5F80028F5D103E04FF4FA7068
:1011700000F0B4F9C8224BA14BA000F0B9F8002848
:10118000F4D14DA002F07CFEFFF730FF03E04FF4F6
:10119000FA7000F0A3F9FFF7BFFB0028F7D0012198
:1011A0004A48FFF7EFFE10BD312E2041540D0A00D2
:1011B0004F4B000041540D0A00000000312E352035
:1011C0005253540D0A00000041542B5253540D0A3F
:1011D00000000000322E2043574D4F44450D0A00B9
:1011E00041542B43574D4F44453D310D0A000000FB
:1011F000332E41542B4357444843500D0A000000FE
:1012000041542B4357444843503D312C310D0A0083
:10121000342E2043574A41500D0A0000474F5420B6
:101220004950000041542B43574A41503D225769D1
:101230004669B5C453534944222C22C3DCC2EB2275
:101240000D0A0000372E43495053544152540D0AA1
:1012500000000000434F4E4E4543540041542B4381
:10126000495053544152543D22544350222C22B7EA
:10127000FECEF1C6F74950CCEED5E2C0EF222C31BC
:101280003838330D0A000000382E4349504D4F4482
:10129000450D0A0041542B4349504D4F44453D31C3
:1012A0000D0A00003E00000041542B4349505345B5
:1012B0004E440D0A000000004553503832363620A7
:1012C000496E6974204F4B0D0A0000000000002099
:1012D00070B504460D46FFF789FE4FF6FF732A46A8
:1012E0002146024801F0F1FB70BD0000B408002067
:1012F0002DE9F04104460E4615462046FEF7B6FF9E
:1013000087B24FF6FF733A462146134801F0DDFBE2
:1013100003E014F8010B02F0A1FD20780028F8D1B9
:1013200012E000F03BF860B90C4802F0A9FD31462C
:101330000A48FEF77FFF20B1FFF758FE0020BDE806
:10134000F0810A2000F0CAF8281EA5F101018DB233
:10135000E7D10120F3E70000B4080020A800002036
:10136000C0F30801054A1268516000BF03490968CB
:10137000096801F040010029F8D07047B408002046
:1013800010B50446FFF732FE03E014F8010BFFF737
:10139000E7FF20780028F8D110BD00000A48008837
:1013A00008B9012070470848008808490988884220
:1013B00003D1002004490880F4E70348008803496A
:1013C00008800120EEE70000040000200600002055
:1013D00072B600BFFEE70146002291F82100022804
:1013E00008D00420886300BF002081F8200000BFDF
:1013F000012070470868006820F00E000B68186034
:101400000868006820F001000B68186091F840300F
:1014100001209840CB6B5860012081F8210000BF6B
:10142000002081F8200000BF1046E2E770B50446B6
:10143000002594F82100022803D00420A063012590
:1014400048E02068006820F00E00216808602068ED
:10145000006820F00100216808601F492068884268
:1014600001D1012026E01C4914312068884201D1B5
:1014700010201FE0184928312068884201D18015CA
:1014800018E015493C312068884201D1801411E0F0
:10149000114950312068884202D14FF4803009E070
:1014A0000D4964312068884202D14FF4801001E078
:1014B0004FF08070084908394860012084F8210005
:1014C00000BF002084F8200000BF606B10B12046F0
:1014D000616B8847284670BD0800024070B504461D
:1014E00000F0A0F906462546681C10B104480078B3
:1014F000054400BF00F096F9801BA842FAD370BDE6
:10150000340000202DE9F8470346002294466EE19E
:101510004FF0010808FA02F4D1F8008008EA04004C
:10152000A0427DD1DFF8DCA2D1F80480A8EB0A0943
:10153000D0453AD014DCB8F1030F50D009DCB8F133
:10154000000F31D0B8F1010F1CD0B8F1020F49D112
:1015500020E0B8F1110F18D0B8F1120F42D11EE0FF
:10156000B9F5881F25D006DCB9F5803F20D0B9F544
:10157000801F37D11AE0B9F5001F18D0B9F5041F44
:1015800030D117E0D1F80CC02DE0D1F80C8008F173
:10159000040C28E0D1F80C8008F1080C23E0D1F805
:1015A0000C8008F10C0C1EE000BF00BF00BF00BFA4
:1015B00000BF00BFD1F80880B8F1000F02D14FF092
:1015C000040C0BE0D1F80880B8F1010F03D14FF003
:1015D000080C1C6102E04FF0080C5C6103E04FF066
:1015E000000C00E000BF00BFFF2801D8984601E0D2
:1015F00003F104084646FF2802D84FEA820803E0B8
:10160000A2F108084FEA88084746D6F800804FF054
:101610000F0909FA07F928EA09080CFA07F900E0A6
:1016200088E048EA0908C6F80080D1F8048008F08C
:101630008058B8F1805F7DD100BFDFF8CC81D8F849
:10164000188048F00108DFF8C091C9F81880C84632
:10165000D8F8188008F00108CDF8008000BF00BF5E
:101660004FEAB9384FEA920958F829504FEA827880
:101670004FEA18794FF00F0808FA09F825EA08052B
:10168000DFF88881434502D14FF0000816E0DFF80B
:101690008081434502D14FF001080FE0DFF87481EB
:1016A000434502D14FF0020808E0DFF86C81434562
:1016B00002D14FF0030801E04FF004084FEA8279AD
:1016C0004FEA197908FA09F848EA0505DFF84C816C
:1016D0004FEA920948F82950D1F8048008F480387C
:1016E000B8F5803F0AD1DFF83881D8F8008048EAA1
:1016F0000008DFF82C91C9F8008009E0DFF82081AC
:10170000D8F8008028EA0008DFF81491C9F80080B2
:10171000D1F8048008F40038B8F5003F10D1DFF8A4
:10172000008108F10408D8F8008048EA0008DFF8D2
:10173000F09000E05AE009F10409C9F800800DE0DA
:10174000DFF8DC8008F10408D8F8008028EA0008F7
:10175000DFF8CC9009F10409C9F80080D1F80480C1
:1017600008F48018B8F5801F0ED1DFF8B48008F1B6
:101770000808D8F8008048EA0008DFF8A49009F1CA
:101780000809C9F800800DE0DFF8948008F1080826
:10179000D8F8008028EA0008DFF8849009F10809E9
:1017A000C9F80080D1F8048008F40018B8F5001FCB
:1017B0000ED1DFF86C8008F10C08D8F8008048EAF8
:1017C0000008DFF85C9009F10C09C9F800800DE011
:1017D000DFF84C8008F10C08D8F8008028EA0008EF
:1017E000DFF83C9009F10C09C9F80080521CD1F8CF
:1017F000008028FA02F8B8F1000F7FF489AEBDE846
:10180000F88700000000111000100240000801409D
:10181000000C01400010014000140140080001408C
:101820000004014001480068704700002C000020BF
:101830000348006803490978084401490860704773
:101840002C0000203400002010B50848006840F04B
:10185000100006490860032000F0CCF80F2000F0CB
:1018600007F800F049F8002010BD000000200240F9
:1018700070B588B0044600250026002221461D20B0
:1018800000F07AF81D2000F067F800BF1648C06924
:1018900040F002001449C8610846C06900F0020027
:1018A000019000BF00BF02A903A800F07DF900F07D
:1018B000A3F945000D48B5FBF0F0461E0C480D4954
:1018C000086040F2E7310B48C160466000210161C9
:1018D000816000F071FC20B9064800F0A1FC08B05E
:1018E00070BD0120FBE700000010024040420F00E5
:1018F00000040040F808002008B500BF14488069C3
:1019000040F00100124988610846806900F001003A
:10191000009000BF00BF00BF0846C06940F0805083
:10192000C8610846C06900F08050009000BF00BF49
:1019300000220F21901E00F01FF800BF05494868E3
:1019400020F0E06040F00070486000BF08BD00007B
:10195000001002400000014001460846002809DB53
:1019600000F01F0301229A4043099B0003F1E0238A
:10197000C3F8002100BF70472DE9F05F80460D4697
:101980001646002702F0B4FA074639462A4633467F
:1019900001F00700C0F1070ABAF1040F02D94FF0B5
:1019A000040A01E0C0F1070AD14600F1040ABAF1C5
:1019B000070F02D24FF0000A01E0A0F1030AD4465B
:1019C0004FF0010A0AFA09FAAAF1010A0AEA020A20
:1019D0000AFA0CFA4FF0010B0BFA0CFBABF1010BFE
:1019E0000BEA030B4AEA0B042146404602F088FA50
:1019F000BDE8F09F00BF00F00702064B19684FF6E4
:101A0000FF031940044B0B4343EA0221014B1960C9
:101A100000BF70470CED00E00000FA0570B5044609
:101A20000D460CB9012070BD5A48006800F007004F
:101A3000A8420ED25748006820F0070028435549B5
:101A400008600846006800F00700A84201D00120A5
:101A5000E9E7207800F0020002281DD1207800F08C
:101A60000400042805D14C48406840F4E0604A492D
:101A70004860207800F00800082805D146484068F2
:101A800040F46050444948604348406820F0F0000A
:101A9000A168084340494860207800F0010078B30D
:101AA0006068012806D13C48006800F4003090B915
:101AB0000120B8E76068022806D13748006800F0C6
:101AC000007040B90120AEE73348006800F0020022
:101AD00008B90120A7E73048406820F0030061689A
:101AE00008432D494860FFF79DFE064609E0FFF7D1
:101AF00099FE801B41F28831884202D9032092E787
:101B000007E02548406800F00C006168B0EB810FE9
:101B1000EDD12048006800F00700A8420ED91D480A
:101B2000006820F0070028431A490860084600684A
:101B300000F00700A84201D0012074E7207800F0EF
:101B40000400042807D11448406820F4E060E168EC
:101B5000084311494860207800F00800082808D19F
:101B60000D48406820F46050216940EAC1000A49EC
:101B7000486000F061F808494968C1F30311074A59
:101B8000515CC8400649086006480068FFF770FECF
:101B9000002048E70020024000100240506B00087F
:101BA00038000020300000200F2202600D4A5268E9
:101BB00002F0030242600B4A526802F0F0028260B7
:101BC000084A526802F4E062C260064A526802F4AF
:101BD0006052D2080261044A126802F007020A60E9
:101BE00070470000001002400020024001480068D9
:101BF000704700003800002000B5FFF7F7FF0449E8
:101C00004968C1F30221034A515CC84000BD00008D
:101C100000100240606B000800B5FFF7E7FF0449C1
:101C20004968C1F3C221034A515CC84000BD0000AD
:101C300000100240606B0008F0B585B00FF26C0C2C
:101C40009CE8E01001A8A0E8E0101CA52D68009514
:101C500000210022002300240020194D696801F0B2
:101C60000C05F5B1042D02D0082D19D101E015485D
:101C700019E001ADC1F38346AC5D01F4803555B187
:101C80000F4D6D68C5F340451DF805200D4D6543AA
:101C9000B5FBF2F302E00C4D04FB05F3184602E03D
:101CA00000BF084800BF00BF05B0F0BD0203040537
:101CB000060708090A0B0C0D0E0F10100102000098
:101CC0000010024000127A0000093D00F8B50446F9
:101CD0000CB90120F8BD207800F00100002878D070
:101CE000F848406800F00C0004280CD0F548406823
:101CF00000F00C00082811D1F248406800F4803050
:101D0000B0F5803F0AD1EF48006800F400300028A9
:101D10005FD0606800285CD10120DBE700BF60680D
:101D2000B0F5803F06D1E748006840F48030E549CF
:101D3000086028E0606858B9E248006820F4803004
:101D4000E04908600846006820F4802008601AE036
:101D50006068B0F5A02F0BD1DA48006840F480200D
:101D6000D84908600846006840F4803008600AE0FE
:101D7000D448006820F48030D249086008460068E2
:101D800020F48020086000BF606888B1FFF74AFD3A
:101D9000054606E0FFF746FD401B642801D90320F5
:101DA00098E7C848006800F400300028F2D010E03E
:101DB000FFF738FD054606E0FFF734FD401B6428B9
:101DC00001D9032086E7BF48006800F400300028EE
:101DD000F2D1207800F00200022857D1B9484068BB
:101DE00000F00C0050B1B748406800F00C00082823
:101DF00018D1B448406800F4803098B9B148006800
:101E000000F0020020B12069012801D0012061E723
:101E1000AC48006820F0F800616940EAC100A949B7
:101E2000086033E02069E8B10120A7490860FFF7A6
:101E3000F9FC054606E0FFF7F5FC401B022801D936
:101E4000032047E79F48006800F002000028F2D016
:101E50009C48006820F0F800616940EAC100994997
:101E6000086013E0002098490860FFF7DBFC054696
:101E700006E0FFF7D7FC401B022801D9032029E721
:101E80009048006800F002000028F2D1207800F0AD
:101E9000080008282DD1A069B8B101208B4908603D
:101EA000FFF7C0FC054606E0FFF7BCFC401B02281C
:101EB00001D903200EE78348406A00F002000028A1
:101EC000F2D0012001F06CFC13E000207F49086093
:101ED000FFF7A8FC054606E0FFF7A4FC401B02281C
:101EE00001D90320F6E67748406A00F00200002896
:101EF000F2D1207800F00400042873D10027714843
:101F0000C06900F0805070B900BF6E48C06940F0F1
:101F100080506C49C8610846C06900F0805000904C
:101F200000BF00BF01276A48006800F48070B0B9A4
:101F30006748006840F4807065490860FFF772FCEC
:101F4000054606E0FFF76EFC401B642801D903201C
:101F5000C0E65F48006800F480700028F2D000BF3F
:101F6000E068012806D15748006A40F00100554951
:101F7000086227E0E06858B95248006A20F0010082
:101F8000504908620846006A20F00400086219E01F
:101F9000E06805280BD14B48006A40F0040049492D
:101FA00008620846006A40F0010008620AE04548FD
:101FB000006A20F00100434908620846006A20F0E8
:101FC0000400086200BFE068A0B1FFF72BFC0546E3
:101FD00009E0FFF727FC401B41F28831884202D913
:101FE000032077E622E03748006A00F0020000286C
:101FF000EFD012E0FFF716FC054608E0FFF712FCF1
:10200000401B41F28831884201D9032062E62D4805
:10201000006A00F002000028F0D1012F05D1294804
:10202000C06920F080502749C86100BFE069C8B38B
:102030002448406800F00C00082860D0E0690228BD
:1020400048D1002020490866FFF7ECFB054606E072
:10205000FFF7E8FB401B022801D903203AE61948A4
:10206000006800F000700028F2D1206AB0F5803FCF
:1020700007D11448406820F40030A1680843114992
:102080004860D4E9080108430E49496821F47411F5
:1020900008430C49486001200B490866FFF7C2FB62
:1020A000054607E03DE0FFF7BDFB401B022801D9D4
:1020B00003200FE60348006800F000700028F2D00B
:1020C0002FE0000000100240000042428004424223
:1020D00000700040002014490866FFF7A3FB054686
:1020E00006E0FFF79FFB401B022801D90320F1E522
:1020F0000E48006800F000700028F2D111E0E0699D
:10210000012800D1E6E50948466806F48031206AD6
:10211000814204D106F47011606A814201D001202D
:10212000D8E50020D6E50000000042420010024041
:102130007047704730B502460B4600BF92F83C002E
:10214000012801D1022030BD012082F83C0000BFEF
:10215000022082F83D00106844681068816824F00D
:1021600070041868044310684460104D1068A84259
:102170000BD01068B0F1804F07D00D4D1068A84209
:1021800003D00C4D1068A84205D121F08001586899
:10219000014310688160012082F83D0000BF0020EB
:1021A00082F83C0000BF00BFCDE70000002C0140DA
:1021B000000400400008004010B504460CB901209E
:1021C00010BD94F83D0028B9002084F83C0020465A
:1021D00000F025F8022084F83D00211D206801F060
:1021E0007DFB012084F8460000BF84F83E000121F9
:1021F0003F200155402001554120015500BF00BF3F
:10220000012084F842004320015544200155452017
:10221000015500BF012084F83D000020D0E7704741
:10222000014691F83D00012801D0012070470220AD
:1022300081F83D000868C06840F001000B68D86074
:10224000124B086898420BD00868B0F1804F07D055
:102250000F4B0868984203D00E4B086898420CD187
:102260000868806800F00702062A0CD00868006839
:1022700040F001000B68186005E00868006840F055
:1022800001000B6818600020D0E70000002C01401E
:102290000004004000080040704710B50446206864
:1022A0000069C0F34000D8B12068C068C0F34000A6
:1022B000B0B16FF00200216808610120207720682A
:1022C000806900F0030018B12046FFF7E5FF05E044
:1022D000204600F0D5F8204600F09AF9002020773B
:1022E00020680069C0F38000D8B12068C068C0F3DE
:1022F0008000B0B16FF004002168086102202077EF
:102300002068806900F4407018B12046FFF7C4FFD0
:1023100005E0204600F0B4F8204600F079F90020EE
:10232000207720680069C0F3C000D8B12068C06879
:10233000C0F3C000B0B16FF008002168086104204C
:1023400020772068C06900F0030018B12046FFF72D
:10235000A3FF05E0204600F093F8204600F058F96E
:102360000020207720680069C0F30010D8B12068F1
:10237000C068C0F30010B0B16FF0100021680861B0
:10238000082020772068C06900F4407018B120460A
:10239000FFF782FF05E0204600F072F8204600F0CB
:1023A00037F9002020772068006900F0010058B15B
:1023B0002068C06800F0010030B16FF001002168B2
:1023C0000861204600F090F920680069C0F3C01051
:1023D00058B12068C068C0F3C01030B16FF0800001
:1023E000216808612046FFF7A3FE20680069C0F35A
:1023F000801058B12068C068C0F3801030B16FF011
:10240000400021680861204600F07AF920680069E0
:10241000C0F3401058B12068C068C0F3401030B11C
:102420006FF02000216808612046FFF782FE10BD92
:1024300010B586B0044600200290039004900590E9
:102440002068B0F1804F15D100BF0B48806940F083
:102450000400094988610846806900F00400019081
:1024600000BF00BF022002900390059002A903481C
:10247000FFF748F806B010BD001002400008014008
:10248000704770B504460D46164600BF94F83C00F0
:10249000012801D1022070BD012084F83C0000BF5A
:1024A00036B1042E1BD0082E31D00C2E5ED145E063
:1024B0002946206801F05EFA2068806940F0080033
:1024C000216888612068806920F0040021688861A3
:1024D00020688069296908432168886147E02946A6
:1024E000206801F077FA2068806940F40060216874
:1024F00088612068806920F4806021688861206894
:102500008069296940EA0120216888612FE0294615
:10251000206801F093FA2068C06940F00800216843
:10252000C8612068C06920F004002168C861206883
:10253000C069296908432168C86118E029462068F4
:1025400001F0B0FA2068C06940F400602168C861F9
:102550002068C06920F480602168C8612068C06973
:10256000296940EA01202168C86100E000BF00BF7E
:1025700000BF002084F83C0000BF00BF8BE710B50F
:1025800004460CB9012010BD94F83D0028B9002084
:1025900084F83C00204600F025F8022084F83D0035
:1025A000211D206801F09AF9012084F8460000BF3F
:1025B00084F83E0001213F20015540200155412073
:1025C000015500BF00BF012084F84200432001559F
:1025D000442001554520015500BF012084F83D00ED
:1025E0000020D0E708B50168B1F1804F0DD100BFE0
:1025F0000649C96941F00101044AD1611146C9691E
:1026000001F00101009100BF00BF08BD00100240B1
:102610007047000070B504460D4615B994F83E00A9
:102620000BE0042D02D13F20005D06E0082D02D111
:102630004020005D01E04120005D012801D0012023
:1026400070BD1DB9022084F83E000EE0042D03D1B8
:1026500002213F20015508E0082D03D1022140202E
:10266000015502E00221412001550122294620683E
:1026700001F06EF919492068884201D1012000E07B
:10268000002028B12068406C40F400402168486474
:102690001249206888420BD02068B0F1804F07D0E3
:1026A0000F492068884203D00E49206888420CD127
:1026B0002068806800F00706062E0CD020680068AD
:1026C00040F001002168086005E02068006840F0E3
:1026D0000100216808600020B2E70000002C0140E2
:1026E000000400400008004010B50446034920687B
:1026F000884201D1FFF79CF810BD000000040040A3
:1027000070477047704700002DE9F84F0446206875
:1027100005682068C668206847694FF00009CA4606
:1027200005F00F09B9F1000F0AD105F0200038B10A
:1027300006F0200020B1204601F00DFABDE8F88F28
:10274000B9F1000F71D007F0010018B906F49070CC
:1027500000286AD005F0010030B106F4807018B18D
:10276000206C40F00100206405F0040030B107F057
:10277000010018B1206C40F00200206405F0020056
:1027800030B107F0010018B1206C40F00400206463
:1027900005F0080048B106F0200010B907F001006C
:1027A00018B1206C40F008002064206C68B305F07C
:1027B000200028B106F0200010B1204601F0CBF92E
:1027C00020684069C0F3801A206C00F0080010B93E
:1027D000BAF1000F22D0204601F092F9206840693A
:1027E00000F04000B0B12068406920F0400021684E
:1027F0004861A06B50B15648A16B4863A06BFEF7CF
:1028000015FE10B1A06B416B88470CE02046FFF726
:1028100079FF08E02046FFF775FF04E02046FFF748
:1028200071FF0020206489E7FFE7206B012878D141
:1028300005F01000002874D006F01000002870D0B9
:1028400000BF002000902068006800902068406869
:10285000009000BF00BF2068406900F04000C0B396
:10286000A06B006840681FFA80F8B8F1000F2FD005
:10287000A08D40452CDDA4F82E80A06B8069202817
:102880001FD02068C06820F480702168C86020686C
:10289000406920F00100216848612068406920F00B
:1028A000400021684861202084F83E000020206319
:1028B0002068C06820F010002168C860A06BFEF797
:1028C0008AFDA08DE28D801A81B22046FFF719FFA4
:1028D00034E7FFE7A08DE18D401A1FFA80F8E08D04
:1028E000E8B1B8F1000F1AD02068C06820F49070E9
:1028F0002168C8602068406920F0010021684861B3
:10290000202084F83E00002020632068C06820F06A
:1029100010002168C86041462046FFF7F2FE0DE72F
:10292000FFE705F0800030B106F0800018B12046C6
:1029300001F002FA02E705F0400030B106F0400075
:1029400018B1204601F0F7F8F8E600BFF6E60000FF
:10295000ED3A000810B504460CB9012010BDA0697D
:1029600000B100E000BF94F83D0028B9002084F8D1
:102970003C00204600F028F8242084F83D00206820
:10298000C06820F400502168C860204601F056F964
:102990002068006920F4904021680861206840693F
:1029A00020F02A00216848612068C06840F4005087
:1029B0002168C86000202064202084F83D0084F84D
:1029C0003E000020CAE7000010B586B00446002093
:1029D00002900390049005903749206888422FD1D7
:1029E00000BF3648806940F4804034498861084619
:1029F000806900F48040019000BF00BF00BF08461E
:102A0000806940F0040088610846806900F0040095
:102A1000019000BF00BF48150290022003900320E0
:102A2000059002A92648FEF76DFD4FF480600290E4
:102A300000200390049002A92148FEF763FD39E0CD
:102A400020492068884235D100BF1C48C06940F445
:102A500000301A49C8610846C06900F4003001908E
:102A600000BF00BF00BF0846806940F004008861D5
:102A70000846806900F00400019000BF00BF0420F8
:102A80000290022003900320059002A90C48FEF753
:102A900039FD0820029000200390049002A9084804
:102AA000FEF730FD002205212620FEF765FF2620D7
:102AB000FEF752FF06B010BD003801400010024082
:102AC000000801400044004070472DE9F84F0446DB
:102AD0000E46174699464FF0000A94F83D0020280C
:102AE0005AD106B117B90120BDE8F88F00BF94F89C
:102AF0003C00012801D10220F6E7012084F83C00C7
:102B000000BF00202064212084F83D00FEF78AFEEB
:102B10008246A784E784A068B0F5805F04D120696D
:102B200010B90025B04602E035464FF0000800BF5E
:102B3000002084F83C0000BF1BE0534600228021A7
:102B40002046CDF8009001F027F908B10320CBE72B
:102B500045B9B8F80000C0F308002168486008F1E2
:102B6000020803E02878216848606D1CE08C401E54
:102B7000E084E08C0028E0D153460022402120462A
:102B8000CDF8009001F008F908B10320ACE720204F
:102B900084F83D000020A7E70220A5E7704700BFAA
:102BA000FEE710B50446207B012802D1206801F021
:102BB00051FF002020606060A060207310BD0246BD
:102BC000002301230DE002F07F000870D2092AB132
:102BD000087840F080000870491C01E018467047F2
:102BE0005B1C042BEFDD4FF0FF30F8E770B50446B7
:102BF0000E460025206898B901202073304601F068
:102C000079FF20602068E0B100206060A66003E0EA
:102C10000020216848556D1CA068A842F8D810E033
:102C20000220207303E00020216848556D1CA06835
:102C3000A842F8D800206060A068B04201D200200D
:102C4000206070BD2DE9FF4F83B082468B469146D0
:102C5000159C0025002002900F2701904846FDF7A3
:102C600005FB0FFA80F8B9F1000F03D1012007B07E
:102C7000BDE8F08F08F10200384487B2109808B11F
:102C800045F00205129878B145F004051298FDF759
:102C9000EDFAC0B202901398FDF7E8FA01460298E7
:102CA000001D0844384487B2119820B1012804D08F
:102CB000022808D104E000BF07E045F00C0504E05D
:102CC00045F0140501E00220D1E700BF149808B1D7
:102CD00045F02405BAF1000F02D0BBF1000F01D17D
:102CE0000320C4E745F0C0055046FDF7BFFA06468D
:102CF0005846FDF7BBFA3044001D384487B23946C8
:102D00002046FFF773FF206808B90420AFE7394673
:102D10002068FDF784FA10216268501C606020680A
:102D20008154D4E90023D118781FFFF748FF00B27F
:102D300001900198002804DA2046FFF732FF0520B1
:102D400095E7616801980844606000216268501C42
:102D500060602068815404216268501C60602068B3
:102D600081544D216268501C60602068815451215B
:102D70006268501C60602068815454216268501C55
:102D80006060206881546268501C606020688154D3
:102D900004216268501C6060206881546168481C8E
:102DA0006060206845540698010A6268501C6060A3
:102DB000206881540698C1B26268501C6060206827
:102DC0008154C8F307216268501C606020688154F8
:102DD0006268501C6060206800F80280D4E900122C
:102DE000881842464946FDF748FA606840446060EA
:102DF00005F00400B8B30026139808B938A0139062
:102E00001298FDF733FA86B2310A6268501C60608E
:102E1000206881546268501C606020688654D4E940
:102E20000012881832461299FDF727FA606830447C
:102E300060601398FDF71AFA86B2310A6268501C76
:102E40006060206881546268501C6060206886540D
:102E5000D4E90012881832461399FDF70EFA60681B
:102E60003044606000BF05F08000C8B15046FDF7F7
:102E7000FDF986B2310A6268501C60602068815496
:102E80006268501C606020688654D4E9001288187B
:102E900032465146FDF7F1F960683044606000BF8A
:102EA00005F04000C8B15846FDF7E0F986B2310A96
:102EB0006268501C6060206881546268501C6060C9
:102EC00020688654D4E90012881832465946FDF726
:102ED000D4F960683044606000BF0020C7E600009D
:102EE000000000002DE9FF4F83B083461746994646
:102EF000139C002500260020029001908046BBF123
:102F0000000F03D1012007B0BDE8F08F00260AE0D2
:102F10000498805D232803D00498805D2B2801D17C
:102F20000220F0E7761C0498805D0028F0D148F07C
:102F30003008119808B148F0010806EB0900851C1B
:102F4000109820B1012804D002280AD105E000BF62
:102F500009E048F00208AD1C05E048F00408AD1C8B
:102F600001E00320CFE700BF8FB33878022821D1DA
:102F70004FF0000A00BF50460AF1010A385C7D2874
:102F8000F9D1AAF1030A0AF1070002900298A9EB0D
:102F9000000AE81CA0EB0A012046FFF727FE206884
:102FA00008B90420AFE7EA1CA2EB0A012068FDF78C
:102FB00036F919E0691D2046FFF718FE206808B9A8
:102FC0000420A0E7691D2068FDF729F90CE0FFE760
:102FD000691D2046FFF70AFE206808B9042092E721
:102FE000691D2068FDF71BF96168481C6060206856
:102FF00000F80180D4E9000281182846FFF7DFFDC0
:1030000001900198002804DA2046FFF7CAFD052048
:1030100079E76168019808446060C6F30721626837
:10302000501C6060206881546268501C6060206899
:103030008654D4E90012881832460499FDF71DF928
:10304000606830446060109860B14FEA1B2162688C
:10305000501C6060206881546268501C6060206869
:1030600000F802B0C7B1387802280BD1D4E90012B9
:1030700088183946029AFDF7B9F861680298084441
:10308000606009E0D4E9001288184A463946FDF725
:10309000ADF8606848446060002034E770B50546CC
:1030A0000C4604212046FFF7A1FD206808B9012045
:1030B00070BD70216268501C6060206881540221DC
:1030C0006268501C60602068815429126268501C3C
:1030D0006060206881546268501C6060206885547C
:1030E0000020E5E770B505460C4604212046FFF7B1
:1030F0007DFD206808B9012070BD62216268501C06
:1031000060602068815402216268501C6060206801
:10311000815429126268501C606020688154626882
:10312000501C6060206885540020E5E72DE9FF5FB2
:103130008046174699460E9C0026B246B3460025A7
:10314000B8F1000F03D1012004B0BDE8F09F0BE0FF
:1031500057F8250008B90220F6E757F82500FDF7D3
:1031600085F80644681CC5B24D45F1DBF01C00FB38
:1031700009F000F1020A0AF105012046FFF736FDC9
:10318000206808B90320DFE782216268501C606074
:1031900020688154D4E9000281185046FFF70FFDE2
:1031A0000FFA80FBBBF1000F04DA2046FFF7F9FCB1
:1031B0000420C9E76068584460604FEA18216268DB
:1031C000501C6060206881546268501C60602068F8
:1031D00000F80280002524E057F82500FDF746F8A6
:1031E0000646C6F307216268501C6060206881545F
:1031F0006268501C606020688654D4E90023D018AF
:1032000057F825103246FDF738F8606830446060A2
:103210000198C1B26268501C606020688154681CCB
:10322000C5B24D45D8DB00208EE7F0B504460D460B
:103230002646012300201060002114E0775C07F08F
:103240007F07106807FB03001060705C00F08000CF
:1032500008B9481CF0BDDB01B3F5001F02D36FF0C5
:103260000100F7E7491CA942E8DB4FF0FF30F1E726
:103270002DE9F84380460C4615461E462F2108F1DD
:103280000600FCF7E9FF07460020009017B901206F
:10329000BDE8F8837F1C6A46042108F10100FFF7AE
:1032A000C4FF252001F026FC2060206808B9022018
:1032B000EEE725212068FCF7B2FF2422394620687A
:1032C000FCF794FF243700982C3830803188481C54
:1032D00001F010FC2860286820B9206801F0BAFBD2
:1032E0000320D5E73288511C2868FCF798FF328804
:1032F00039462868FCF77AFF0020C9E7014648787C
:10330000022801D001207047887810B18878012800
:1033100001D1C878F7E7FF20F5E700002DE9FC5F51
:1033200081460D4614461E46DDE90C8B99F80000D7
:1033300000F00F0A002001900AF008000090CAF384
:1033400041008BF8000001AA042109F10100FFF7F8
:103350006CFF4844471C0198022802D30AF0010080
:1033600010B1FF20BDE8FC9F7878397840EA012051
:1033700020802088801C0199884201D9FF20F1E734
:1033800054A1B81CFCF756FF08B10F20EAE79BF8E0
:10339000000020B101283DD0022877D13BE0009801
:1033A00008B1FF20DEE72188481C01F0A3FB28605C
:1033B000286808B9FF20D5E72288511C2868FCF747
:1033C0002EFF2288B91C2868FCF710FF0198801E88
:1033D0002188401AA8F80000B8F80010481C01F035
:1033E00089FB3060306820B9286801F033FBFF208A
:1033F000B8E7B8F80020511C3068FCF710FFB8F8A7
:103400000020B4F800C0BB1C0CEB03013068FCF7D3
:10341000EDFE4FE000BF2088801C0199884201D951
:10342000FF209FE72088C01C395C2088801C385C06
:1034300041EA00210E9801800E9808B9FF2091E71B
:103440002188481C01F056FB2860286808B9FF2035
:1034500088E72288511C2868FCF7E1FE2288B91C05
:103460002868FCF7C3FE0198001F2188401AA8F8BD
:103470000000B8F80010481C01F03CFB30603068D8
:1034800028B9286801F0E6FAFF206BE710E0B8F8E9
:103490000020511C3068FCF7C2FEB8F80020B4F8D8
:1034A00000C03B1D0CEB03013068FCF79FFE01E000
:1034B000FF2057E700BF2B212846FCF7CDFE20B99F
:1034C00023212846FCF7C8FE08B1FF204AE7002068
:1034D00048E70000246372657100000001464878E7
:1034E000022801D001207047887820B9C8780A28BE
:1034F00001D10020F7E70120F5E7014648780228CE
:1035000001D001207047887820B9C8780A2801D1F5
:103510000020F7E70120F5E701464878022801D0AE
:1035200001207047887820B9C8780A2801D1002086
:10353000F7E70120F5E702465078022801D0012084
:1035400070479078B0EB112F05D1D078CBB298426C
:1035500001D10020F4E70120F2E70000F8B50446AD
:10356000FF2720780511012D01DB0E2D01DD3846E6
:10357000F8BD032D24D1002000906A460421601C70
:10358000FFF753FE2044461C0098022803D32078FE
:1035900000F0010008B1FF20EAE77078317840EAD6
:1035A0000120801C0099884201D9FF20E0E706A194
:1035B000B01CFCF73FFE08B10F2700E0032700E036
:1035C0002F463846D4E7000024637265710000007E
:1035D0000146FF208A78A2B9CA78142A11D10A7943
:1035E00032B1012A05D0022A04D0802A06D103E094
:1035F00000BF00BF002003E0012001E0022000BF67
:1036000000BF7047014601208A781AB9CA781E2A7D
:1036100000D100207047000000B58FB01C220C497B
:1036200008A8FCF7E3FD002108A801F0AAFA09495F
:1036300008601C2206491C3101A8FCF7D7FD0021B7
:1036400001A801F09EFA044908600FB000BD000017
:10365000186B0008200000202400002008B500BFDF
:103660000D48806940F020000B4988610846806958
:1036700000F02000009000BF00BF00BF0846806936
:1036800040F0040088610846806900F00400009062
:1036900000BF00BF08BD00000010024000B589B0A7
:1036A0000020079008901C216846FCF7B8FD4FF0F9
:1036B0008040184908604720486000211548816013
:1036C00044F61F61C160002101618161FEF757FF6F
:1036D00008B1FDF77DFE00200790089007A90D486E
:1036E000FEF728FD08B1FDF773FE602000904FF44F
:1036F000FA70019000200290049004226946054867
:10370000FEF7BFFE08B1FDF763FE0248FEF790FE2C
:1037100009B000BD2808002010B50B480B4908600F
:103720004FF4E1304860002108488160C1600161C8
:103730000C21416100218161C161FFF70BF908B1E2
:10374000FDF746FE10BD0000003801407008002063
:1037500010B50F480F4908604FF4E1304860002170
:103760000C488160C16001610C21416100218161CF
:10377000C161FFF7EFF808B1FDF72AFE05480068C0
:10378000C06840F0200003490968C86010BD00000F
:1037900000440040B408002000BFFEE700BFFEE781
:1037A00008B508490968C9084FF47A72B1FBF2F10B
:1037B0004143009100BF00BF00994A1E00920029BA
:1037C000F9D108BD3800002000BF0748008838B193
:1037D00006A000F055FB0948FDF7DCF9FDF706FCF3
:1037E000642001F0BDF9F0E704000020BDD3CAD584
:1037F000B5BDCAFDBEDDCEAAA3BA0000A800002058
:1038000000BF04A106A0FDF79FF94EF2786001F019
:10381000A7F9F6E77B226865617274223A317D0070
:1038200068656172742F64657669636532000000B3
:1038300010B500BF502080F31188BFF34F8FBFF346
:103840006F8F00BF03F03AF818B14FF08050044971
:10385000086000BF002080F3118800BF10BD000089
:1038600004ED00E000B58FB0282105A8FCF7D7FCD7
:1038700014216846FCF7D3FC012005900004069053
:10388000002007900120099002200C90C1030D91A7
:103890004FF4E0110E9105A8FEF718FA08B1FDF7F4
:1038A00097FD0F20009002200190002002904FF41D
:1038B000806003900020049002216846FEF7AEF875
:1038C00008B1FDF785FD0FB000BD704710B5024887
:1038D000FEF7E3FC10BD0000F808002010B50268F8
:1038E000184B984208D0B0F1804F05D0164B984243
:1038F00002D0164B984203D122F070024B681A4353
:10390000104B984208D0B0F1804F05D00E4B984232
:1039100002D00E4B984203D122F44072CB681A4376
:1039200022F080034C6943EA040202608B68C362A0
:103930000B688362034B984201D10B690363012337
:10394000436110BD002C014000040040000800400D
:1039500030B501F01F05012404FA05F3046A9C4305
:103960000462046A01F01F0502FA05F52C430462A3
:1039700030BD000030B5056A25F001050562026A18
:103980004368846924F0700424F003040D682C4318
:1039900022F002028D682A430D4DA84206D100BFD5
:1039A00022F00802CD682A4322F00402084DA84202
:1039B00007D123F4807323F400734D692B438D6981
:1039C0002B43436084614D684563026230BD000053
:1039D000002C014030B5056A25F010050562026A29
:1039E0004368846924F4E04424F440740D6844EA94
:1039F000052422F020028D6842EA05120E4DA842ED
:103A000007D100BF22F08002CD6842EA051222F001
:103A10004002094DA84209D123F4806323F40063D6
:103A20004D6943EA85038D6943EA850343608461F8
:103A30004D688563026230BD002C014030B5056AD7
:103A400025F480750562026A4368C46924F0700435
:103A500024F003040D682C4322F400728D6842EABE
:103A600005220F4DA84207D100BF22F40062CD68A5
:103A700042EA052222F48062094DA84209D123F4CA
:103A8000805323F400534D6943EA05138D6943EADB
:103A900005134360C4614D68C563026230BD000018
:103AA000002C014030B5056A25F480550562036A93
:103AB0004468C26922F4E04222F440720D6842EA8E
:103AC000052223F400538D6843EA0533064DA842CE
:103AD00004D124F480444D6944EA85144460C261F1
:103AE0004D680564036230BD002C014070B5054689
:103AF0006C6A0020E085E0842046FEF703FE70BD7E
:103B00000168C96821F490710268D160016849694F
:103B100021F0010102685161016B012905D10168A1
:103B2000C96821F010010268D160202180F83E10A0
:103B300000210163704710B504462068C06820F07A
:103B400040002168C860202084F83D002046FFF72F
:103B500025F8002010BDF8B5044694F83E00222850
:103B600069D1A068B0F5805F0CD1206950B90025FB
:103B7000A66A20684068C0F308003080A06A801CF4
:103B8000A06215E0A56A0026A068B0F5805F03D0AA
:103B9000A06828B9206918B920684068287004E036
:103BA0002068406800F07F002870A06A401CA06276
:103BB000E08D401E80B2E085A8BB2068C06820F080
:103BC00020002168C8602068C06820F480702168E7
:103BD000C8602068406920F0010021684861202009
:103BE00084F83E00206B01281ED10020206320684D
:103BF000C06820F010002168C8602068006800F0EC
:103C0000100010280AD100BF002000902068006832
:103C1000009020684068009000BF00BFA18D204642
:103C2000FEF76FFD03E004E02046FEF74DFF0020A5
:103C3000F8BD0020FCE70220FAE7000070B504465A
:103C40002168096921F44051E26811432268116139
:103C50002269A1681143626941EA02052168C968C5
:103C600041F20C62914329432268D160216849697D
:103C700021F44071A2691143226851612D4A2168E3
:103C8000914202D1FDF7C8FF01E0FDF7B5FF00EB5F
:103C9000C00101EB001162689200B1FBF2F100EB90
:103CA000C00202EB001263689B00B2FBF3F26423D4
:103CB000B2FBF3F202EBC20303EB0212A1EB8201AF
:103CC000322202EB01116422B1FBF2F101F0F001AA
:103CD00000EBC00202EB001263689B00B2FBF3F240
:103CE0006423B2FBF3F201EB021200EBC00101EB23
:103CF000001163689B00B1FBF3F100EBC00303EB21
:103D000000136668B600B3FBF6F36426B3FBF6F364
:103D100003EBC30606EB0313A1EB8301322303EB92
:103D200001116423B1FBF3F101F00F01114422688A
:103D3000916070BD00380140014691F83D00212896
:103D400028D18868B0F5805F0BD1086948B90A6A44
:103D50001088C0F308000B685860086A801C08626D
:103D600005E00B6A581C086218780B685860C88C0C
:103D7000401E80B2C88458B90868C06820F080002E
:103D80000B68D8600868C06840F040000B68D860D5
:103D9000002070470220FCE72DE9F04104460D4663
:103DA00017469846069E21E0701CF8B12EB1FDF72B
:103DB00039FDA0EB0800B04218D92068C06820F493
:103DC000D0702168C8602068406920F00100216837
:103DD0004861202084F83D0084F83E0000BF0020A8
:103DE00084F83C0000BF0320BDE8F0812068006833
:103DF0002840A84201D1012000E00020B842D3D0E1
:103E00000020F1E710B5114800680068C0F34010C9
:103E1000D0B10F480088B0F5806F02D300200C4964
:103E200008800C480068C1B2094802880088401C1C
:103E3000074B1880084881540448FEF765FC6FF072
:103E4000200002490968086010BD0000B408002085
:103E50000400002004440040A8000020C0F3080132
:103E6000054A1268516000BF03490968096801F0FA
:103E700040010029F8D070477008002000BFFEE71D
:103E80000FB4054B10B503A9044A029800F09AF943
:103E900010BC5DF814FB0000394A0008280000201F
:103EA0000FB4084B10B504A902AA039800F08AF9D0
:103EB000044602A9002000F008FD204610BC5DF871
:103EC00014FB0000CB480008490050EAC12018BF8D
:103ED00004204A0D18BF40F0010040F2FF72B2EB1F
:103EE000515F08BF40F00200012808BF052070475D
:103EF00002480068C0F30220704700000CED00E0AB
:103F000010B5002804DB0A07130E054A135406E017
:103F10000A07140E034A00F00F031B1FD45410BDF0
:103F200000E400E018ED00E02DE9F0414F1E00EB49
:103F3000C7010446D1E9000115461E4637F00602C6
:103F40000DD02A463346FCF762FA7F1E04EBC70306
:103F5000D3E90023FCF7B4F937F00602F1D1022FC0
:103F600025D0042F13D0062F18BFBDE8F0812A46B4
:103F70003346FCF74CFAD4E90A23FCF7A1F92A46A8
:103F80003346FCF744FAD4E90823FCF799F92A46AA
:103F90003346FCF73CFAD4E90623FCF791F92A46AC
:103FA0003346FCF734FAD4E90423FCF789F92A46AE
:103FB0003346FCF72CFAD4E90223FCF781F92A46B0
:103FC0003346FCF724FAD4E90023BDE8F041FCF7BE
:103FD00077B900000022134610460149FCF797BB51
:103FE0000000F03FFCF76CB9002213461046114662
:103FF000FCF78DBB40F2013200204FF0E041FCF7AE
:10400000F5BB0000024A00201107FCF7EFBB0000DF
:1040100001FDFFFF02E008C8121F08C1002AFAD103
:1040200070477047002001E001C1121F002AFBD138
:10403000704700000149086070470000A40000209C
:104040002DE9FF5F82B00021DDE90430020DDDF8CB
:1040500040B0034318D044F61050A2F2FF3242435E
:104060001514119801281FD0A5EB0B00401C5FEA26
:10407000000A4FF000064E4FDFF83891B046504628
:1040800015D5CAF1000413E0119801244AA30128B0
:1040900001D16FEA0B010298119AC0E90031C0E921
:1040A000024206B0BDE8F09FCBF10000DFE7044616
:1040B0000021404A491842EB0450CDE9001012E0BB
:1040C000E00707D032463B4640464946FCF79FF999
:1040D0008046894632463B4610461946FCF797F91A
:1040E00006460F466410002CEAD1DDE90401DDE943
:1040F0000023BAF1000F06DAFCF789F942464B4675
:10410000FCF785F905E0FCF702FB42464B46FCF75D
:10411000FEFA04460E460022284BFCF71BFA03D891
:104120004FF0FF30014607E00022254B2046314684
:10413000FCF7C6F8FCF771FB102409E0002C0ADB41
:104140000A220023FCF734FA039B30321A55641E0E
:1041500050EA0102F2D1641C039AC4F11103144421
:10416000119A012A03D0012208430DD10AE0084325
:1041700004D000204FF0110B119072E7A3EB0B0558
:104180006D1E0DE05B4504DD4FF0000205F10105F9
:1041900004E003DA4FF00002A5F10105002AECD09B
:1041A00002981199C0E90231C0E9004579E70000A1
:1041B000000014400000F03F300000000000F04319
:1041C0000000E03F2DE9FF4F95B09A46884606462D
:1041D0000025EEE1252877D100242746F94A012160
:1041E000039400E0044316F8013F203B01FA03F07A
:1041F0001042F7D130782A2811D06FF02F03307891
:10420000A0F13002092A16D8039A44F0020402EB06
:10421000820203EB42021044761C0390EFE758F849
:10422000042B0392002A03DA504244F40054039012
:1042300044F00204761C30782E2816D116F8010FAF
:1042400044F004042A280DD06FF02F023078A0F13A
:104250003003092B09D807EB870302EB4303C71888
:10426000761CF3E758F8047B761C30786C280FD066
:1042700006DC4C2817D068280DD06A2814D104E039
:10428000742810D07A280FD10DE044F400140AE00D
:1042900044F4801401E044F440147278824202D164
:1042A00004F58014761C761C307866280BD013DC5D
:1042B000582877D009DC002875D04528F6D0462844
:1042C000F4D047281AD193E118E0632835D0642848
:1042D00079D0652812D18BE1702873D008DC67286B
:1042E000F1D069286FD06E280DD06F2806D1ACE0D0
:1042F00073282CD0752874D0782853D0524617993B
:1043000090476D1C54E1C4F30250022809D00328E1
:104310000DD0D8F8001004280DD00D6008F1040865
:1043200046E1D8F80010EA17C1E90052F6E7D8F8DC
:1043300000100D80F2E70D70F0E718F8041B8DF8FF
:10434000001000208DF80100EB46012003E058F832
:1043500004BB4FF0FF3061074FF0000102D40DE0C5
:1043600009F101018946B9420FDA8145F8DB1BF8F2
:1043700009100029F4D108E009F1010189468142C0
:10438000FADB1BF809100029F6D103985346A0EB7D
:10439000090721463846179A00F080FA284400EBB6
:1043A000090507E044E008E10DE01BF8010B524667
:1043B00017999047B9F10109F7D25346214638467B
:1043C000179AF2E039E00A21C4F302524FF0000BD1
:1043D0000091022A06D058F8040BC117032A09D00D
:1043E0000AE023E008F1070020F00702F2E80201EA
:1043F000904605E000B2C117042A01D140B2C117AE
:10440000002906DA0A460021404261EB02012D2212
:1044100002E0220504D52B228DF80420012203E0BE
:10442000E20701D02022F7E7914657E00A2100E099
:1044300010214FF0000B00910BE010214FF0000B0A
:1044400044F004040827009103E008204FF0000B1B
:104450000090C4F30252022A05D058F8040B002140
:10446000032A08D008E008F1070020F00702F2E86C
:104470000201904603E080B2042A00D1C0B24FF09E
:10448000000922072AD53278702A07D0DDF800C04B
:104490008CF0100C5CEA0B0C05D00EE040228DF87D
:1044A0000420012208E050EA010306D030238DF8F1
:1044B00004308DF8052002229146009B83F008030A
:1044C00053EA0B030AD150EA010201D1620705D574
:1044D00030228DF804204FF001097F1E3278582ACF
:1044E00004D039A20C920CAA02920BE03BA2F9E78D
:1044F0005B46009AFCF75CF80C9B9B5C029A521E90
:104500000292137050EA0102F2D1029804A9081A2B
:1045100000F1200B600702D524F4803400E001276D
:104520005F4502DDA7EB0B0000E0002000EB0B0174
:10453000009003984944401A0390E00306D4534680
:104540002146179A039800F0A9F90544002706E0D0
:1045500001A85246C05D179990476D1C7F1C4F45BE
:10456000F6DBE0030CD553462146179A039800F07A
:1045700095F9054404E030205246179990476D1C88
:104580000099481E00900029F5DC08E00298029985
:1045900052460078491C0291179990476D1CBBF157
:1045A0000001ABF1010BF1DC5BE100F065F90544C2
:1045B000761C307800287FF40DAE19B02846BDE88F
:1045C000F08F00000928010030313233343536379E
:1045D000383961626364656600000000303132334F
:1045E00034353637383941424344454600000000EF
:1045F000600700D4062708F1070020F00700F0E864
:104600000223804603F0004C5FEA0C0001D097A023
:1046100009E0200501D596A005E0E00701D095A0AE
:1046200001E0AFF24C001390307823F0004365288E
:104630000CD006DC452809D046281DD047287FD15C
:104640003BE0662818D067287AD136E00021112F88
:1046500001DB112000E0781CCDE9000104A90CA8C1
:10466000FFF7EEFCDDE90D010C9A4FF0000B07F1AE
:104670000109109200914EE04FF000400097CDE903
:10468000011004A90CA8FFF7DBFCDDE90D020C9B6F
:104690000F994FF0000B91461093009211B9791CBD
:1046A00000EB0109B7EB090003D4C0F1FF3B07F1B0
:1046B0000109A9EB0700019042E0012F00DA012770
:1046C0000021112F01DD112000E03846CDE9000165
:1046D00004A90CA8FFF7B4FCDDE90D010C9A0091C8
:1046E0004FF0000BB946109221070FD4009A4A45AB
:1046F00003DA914601E0A9F10109B9F1010F05DDE5
:10470000109AA9F10101515C3029F4D0B84202DAC3
:1047100010F1040F03DA0121CDE9011010E00028A7
:1047200003DC8344A9EB000102E0411C494500DDA4
:104730008946A0EB0B00401C01904FF00040029016
:10474000200705D40198484502DB4FF0FF30019067
:1047500000208DF84B0002980DF14B07B0F1004F8F
:1047600025D002200C902B200D90029800280CDA06
:10477000404202902D200D9007E00A210298FBF79D
:1047800001FF3031029007F8011D0C99481E0C9072
:104790000029F2DC02980028EFD1791E0D980870EC
:1047A000307800F0200040F0450007F8020D11A815
:1047B000C01BC01D02901398007800B1012000EBCF
:1047C0000901019801EBE071029801440398401A35
:1047D000401E0390E00306D453462146179A0398DF
:1047E00000F05CF805441398007818B15246179908
:1047F00090476D1CE00323D553462146179A039832
:1048000000F04CF805441BE0BBF1000F07DB0098FB
:10481000584504DD1098179910F80B0001E017991E
:1048200030205246904701980BF1010B401E05F1D4
:104830000105019004D12E205246179990476D1C16
:10484000B9F10001A9F10109DEDC05E017F8010B5F
:104850005246179990476D1C0299481E02900029F4
:10486000F4DC53462146179A03989EE62D0000007B
:104870002B000000200000002DE9F0410446002537
:104880001E461746880404D405E039462020B04768
:104890006D1C641EF9D52846BDE8F0812DE9F04174
:1048A000044600251E469046C80301D5302700E087
:1048B0002027880404D505E041463846B0476D1CE2
:1048C000641EF9D52846BDE8F0810A68531C0B60C8
:1048D0001070704770B5044622E02568A08900F486
:1048E000807020B9A06810B1A068FFF7F3FFA0891D
:1048F00000F4807028B9206918B10B492069096853
:104900008847A08900F4007028B9206A18B10649C8
:10491000206A0968884720460349096888472C4669
:10492000002CDAD170BD00001C0000200148006896
:10493000704700001400002070B505460E46AC68B4
:1049400000E024682CB13146206A00F04FF80028BE
:10495000F7D1204670BD000010B528200549096830
:10496000884704461CB128212046FBF758FC204606
:1049700010BD00001800002010B5044600221146AA
:10498000204600F001F810BD2DE9F04780460D46A5
:1049900016460024FFF7E0FF074600201249086092
:1049A0000FB9BDE8F087404601F07EFC81464946DC
:1049B000384600F043FC044624B93846FFF78AFF26
:1049C0000020EEE766B1204601F06EFC0446207838
:1049D00030B13846FFF77EFF034804600020E0E76F
:1049E00005B12C603846DCE71400002070B50446A1
:1049F0000D462CB9AC4201D0012070BD0020FCE76F
:104A00000DB90120F9E705E0207808B90020F4E7A6
:104A1000641C6D1C2078FBF7E3FB06462878FBF747
:104A2000DFFB8642F0D02078FBF7DAFB06462878D9
:104A3000FBF7D6FB301AE0E713B50C464FF6FF73D1
:104A4000012269460248FEF740F800981CBD0000AC
:104A50007008002010B5002821D0114B0022001F43
:104A6000196803E0814203D80A4649680029F9D150
:104A700052B11368841A9C4204D100681844106033
:104A8000104602E0506000E0186039B102680B1A6D
:104A9000934203D10B681A4402604968416010BD1B
:104AA0009C000020FCF7D0FEFEF7DCFEFEF7D6FDF2
:104AB000FEF732FEFEF74CFEFEF7F0FD042108483B
:104AC000FDF7A8FD4FF44870054909688863FCF7B5
:104AD000DFFAFEF7A1FD00F04FF800BFFEE700008F
:104AE0002808002001460020842901D0CA1C104457
:104AF00070470000F0B50B30154D20F00701002481
:104B0000144A0FE003688B420BD38B4205D95E1A1F
:104B100043184768C3E9006700E04368136002C0B8
:104B200004E0021D10680028ECD12046002802D1C4
:104B3000286808B10020F0BD064A07481060074AFF
:104B4000121A22F00702C0E9002401202860D7E7EA
:104B5000A00000209C000020341600203018002007
:104B600070B5044625460DB1294600E001210846EE
:104B700001F0C6FC002070BD10B501F0EFFC002074
:104B800010BD7FB504460D46606998B1A06988B133
:104B9000B4F90800FFF7A6FF0646D4E90510CDE9F1
:104BA000006102902B462269D4E9001001F02AFE30
:104BB000039013E0B4F90800FFF794FF064603A83A
:104BC000CDE90060238A9AB22B46D4E9001001F0A7
:104BD000E7FD012802D0002004B070BD0398FBE778
:104BE0002DE9F04705460C4620785B2804D026487E
:104BF00004600020BDE8F0870520E860601C01F03B
:104C000053FB044620785D2801D1601CF2E7FFF7D2
:104C1000A3FE0646A860A86808B90020EAE7204677
:104C200001F042FB80464146304600F007FB074654
:104C300001F03AFB04460CB90020DBE717E0FFF770
:104C40008BFE071E00D1D5E737607E603E46601CB4
:104C500001F02AFB81464946304600F0EFFA8046D3
:104C600001F022FB04460CB90020C3E700BF207806
:104C70002C28E4D020785D2801D1601CBAE70248D6
:104C800004600020B6E70000140000200146002266
:104C90000878302806DB0878392803DC08783038B3
:104CA000024415E00878412806DB0878462803DC32
:104CB0000878373802440BE00878612806DB08786A
:104CC000662803DC08785738024401E0002070476A
:104CD0001201491C0878302806DB0878392803DCE3
:104CE00008783038024415E00878412806DB087857
:104CF000462803DC0878373802440BE0087861283E
:104D000006DB0878662803DC08785738024401E09F
:104D10000020DCE71201491C0878302806DB0878FF
:104D2000392803DC08783038024415E00878412837
:104D300006DB0878462803DC0878373802440BE0A5
:104D40000878612806DB0878662803DC087857387D
:104D5000024401E00020BAE71201491C087830281B
:104D600006DB0878392803DC08783038024415E07F
:104D70000878412806DB0878462803DC08783738AD
:104D800002440BE00878612806DB0878662803DC1B
:104D900008785738024401E0002098E7104696E76B
:104DA0002DE9F04F8BB083468A4600200446054625
:104DB0000026674F00218846894609900120089007
:104DC0009AF800002D2802D1624F0AF1010A9AF8E0
:104DD0000000302801D10AF1010A9AF800003128B8
:104DE00022DB9AF8000039281EDC00BF1AF8011BEC
:104DF000A1F13000FBF77DFB0022574BCDE9060106
:104E000020462946FBF703FBCDE90401DDE9062333
:104E1000FBF756FA04460D469AF80000302803DBEB
:104E20009AF800003928E1DD9AF800002E2830D1E8
:104E30009AF8010030282CDB9AF80100392828DC88
:104E40000AF1010A00BF1AF8011BA1F13000FBF7BB
:104E500050FB0022404BCDE9060120462946FBF7D6
:104E6000D6FACDE90401DDE90623FBF729FA044669
:104E70000D460022364B40464946FBF7C2FA8046B3
:104E800089469AF80000302803DB9AF80000392898
:104E9000D9DD9AF80000652803D09AF8000045286B
:104EA00023D10AF1010A9AF800002B2802D10AF155
:104EB000010A08E09AF800002D2804D14FF0FF30D5
:104EC00008900AF1010A08E01AF8010B3038099934
:104ED00001EB810100EB410009909AF800003028B5
:104EE00003DB9AF800003928EEDDDDE9082101FB3B
:104EF00002F0FBF7FEFA42464B46CDE90001FBF714
:104F0000DFF902460B46CDE902010020124900F00C
:104F1000F3F922462B46CDE9060130463946FBF728
:104F200076FACDE90401DDE90623FBF770FA0446C1
:104F30000D46CBE9064520462946FBF7EBFACBF8B0
:104F400014000320CBF80C0050460BB0BDE8F08FE6
:104F50000000F03F0000F0BF000024402DE9F047C2
:104F600006460C4620787B2804D040480460002088
:104F7000BDE8F0870620F060601C01F095F904465A
:104F800020787D2801D1601CF2E7FFF7E5FC05469B
:104F9000B060B06808B90020EAE7204601F084F963
:104FA00080464146284600F063F8074601F07CF948
:104FB00004460CB90020DBE728692862002028613C
:104FC00020783A2803D0294804600020D0E7601CEC
:104FD00001F06AF980464146284600F02FF907465D
:104FE00001F062F904460CB90020C1E731E0FFF797
:104FF000B3FC071E00D1BBE72F607D603D46601CFF
:1050000001F052F981464946284600F031F88046C1
:1050100001F04AF904460CB90020A9E72869286282
:105020000020286120783A2803D01048046000202E
:105030009EE7601C01F038F981464946284600F099
:10504000FDF8804601F030F904460CB900208FE7E6
:1050500000BF20782C28CAD020787D2801D1601C80
:1050600086E702480460002082E700001400002068
:105070002DE9F05F8346884608F10104002798F87F
:105080000000222805D06A48C0F800800020BDE852
:10509000F09F04E014F8011B5C2900D1641C207807
:1050A000222804D0207810B1781C071EF2D1781C79
:1050B0006049096888478146B9F1000F01D1002095
:1050C000E5E708F101044D469EE020785C2804D015
:1050D00014F8010B05F8010B96E0641C2078722887
:1050E00018D006DC622809D066280BD06E287DD146
:1050F0000CE0742812D07528F9D113E0082005F8C7
:10510000010B7FE00C2005F8010B7BE00A2005F87D
:10511000010B77E00D2005F8010B73E0092005F87D
:10512000010B6FE0601CFFF7B1FD0646241DB6F5CC
:105130005C4F02D3B6F5604F00D306B962E0B6F516
:10514000584F1CD3B6F55C4F19D260785C2802D159
:10515000A078752800D055E0E01CFFF797FD824647
:10516000A41DBAF55C4F02D3BAF5604F00D349E0F5
:10517000C6F30901504661F39F2000F580360427ED
:10518000802E01D2012708E0B6F5006F01D2022778
:1051900003E0B6F5803F00D203273D44012F20D025
:1051A000022F15D0032F0AD0042F24D106F0BF0000
:1051B00040F08001681E05460170B60900BF06F088
:1051C000BF0040F08001681E05460170B60900BFAF
:1051D00006F0BF0040F08001681E05460170B60968
:1051E00000BF1548C05D3043C1B200E006E0681E54
:1051F0000546017000BF00BF3D4403E0207805F87C
:10520000010B00BF00BF641C2078222803D0207847
:1052100000287FF45AAF002028702078222800D17F
:10522000641CCBF810900420CBF80C0020462EE72D
:105230001400002018000020106B000870B505460F
:105240000C460CB9002070BD042224A12046FBF7B7
:1052500028F818B90220E860201DF4E7052221A1F2
:105260002046FBF71EF818B90020E860601DEAE749
:1052700004221EA12046FBF714F820B90120E860A3
:105280006861201DDFE72078222804D121462846C6
:10529000FFF7EEFED7E720782D2805D020783028BC
:1052A00007DB2078392804DC21462846FFF778FD03
:1052B000C9E720785B2804D121462846FFF790FCF7
:1052C000C1E720787B2804D121462846FFF746FE17
:1052D000B9E7084804600020B5E700006E756C6C03
:1052E0000000000066616C736500000074727565F3
:1052F00000000000140000202DE9F04D1D460C4672
:1053000098B0174621F0004123F00043002814BF55
:105310004FF0010C4FF0000C0CEB440CFE4A0CEB70
:1053200002064FEA620C66452BD33E0018BF0126E9
:1053300006EB45061644F94A964222D3F84A53EA48
:10534000070C02D0944205D148B918B0002011468C
:10535000BDE8F08D002808BF4FF0000C01D04FF0E1
:10536000010C0CEB440212F5001F0AD8002F14BFE9
:105370004FF0010C4FF0000C0CEB450212F5001F32
:1053800007D918B03A462B462146BDE8F04DFEF746
:1053900029BE0022DFF88CA3002CB8BF534526DAC3
:1053A000DFF884C36345A8BF022220DADFF870C3A8
:1053B0009C451CDCDFF874C30CEB235CBCF1140FC0
:1053C00008DDCCF1340627FA06FC0CFA06F6BE42DC
:1053D0000DD108E05FB9CCF1140623FA06FC0CFAF3
:1053E00006F69E4203D10CF00102C2F1020251EA1C
:1053F000000C19D1002D17DA002C18BF022A01D099
:10540000012A07D00220FEF715FE18B0BDE8F04DC6
:10541000FEF7E0BD0220FEF70DFEFEF7DBFD18B043
:1054200081F00041BDE8F08DB7F1000C6CD153451F
:1054300025D104F1804212F5801201BF002800201E
:10544000B74918B008BFBDE8F08DB548884207DC01
:10545000002DA1BF6046294618B0BDE8F08D07E0D9
:10546000281E05DA80F0004118B06046BDE8F08DD6
:10547000AF497944D1E9000118B0BDE8F08DDFF8FB
:10548000A0C2634525D1002D1FDA19B1514512D1B3
:10549000D8B909E0002840F0EC82A24A214618B0B1
:1054A00062F31E01BDE8F08D0020214618B060F3C4
:1054B0001E01BDE8F08D08DA18B02346BDE8F04DB6
:1054C000024600206146FBF722B918B02146BDE82C
:1054D000F08D514518DAB5F1804F0DD0A5F1005C83
:1054E000BCF1FF5C10D1B4F1000C0DDB18B06146CB
:1054F000BDE8F04D00F0E1BE234618B00246BDE81D
:10550000F04D1946FAF783BF060024F0004C3BD15A
:10551000D9B1514533D1002C06DD002DA1BF0020AB
:10552000514618B0BDE8F08D002C01DD002D1BDBCD
:10553000002C13DA002D11DB012A4FF0000014BFFC
:1055400078497C4918B0BDE8F08D022A18BF002CBC
:105550000AD0012A08D1002C06DA0AE0002CB8BFD4
:10556000002D11DA012A04D0002018B00146BDE850
:10557000F08D18B000204FF00041BDE8F08DA1F192
:105580004050B0F17F601AD0012000EBE47050EA87
:10559000020421D0624C521E4FF0000B104304BF96
:1055A0004FF0000B644C654883427CDD644A6548DB
:1055B00093421FDD884217DB002D25DB37E0002CEE
:1055C00000DA4AB1022A0CBF01204FF0FF3018B0B8
:1055D000BDE8F04DFAF78DBF0120FEF72BFD18B0A6
:1055E000BDE8F04DFEF700BD4D4A8A4202DC002DB9
:1055F0000ADC1CE0814202DA002D18DA04E0484B94
:10560000994220DD002D12DD0220FEF713FDFEF78A
:10561000F1FC05460E460022534658462146FAF74D
:10562000F6FE18B066F31E012846BDE8F08D022094
:10563000FEF700FDFEF7E6FC0A46214618B062F3CD
:105640001E01BDE8F08D002230466146FAF7D9FE12
:1056500080460E466FF00102FBF7C8F84FF0553256
:10566000394BFAF7D1FE42463346FAF7D0FE002214
:10567000364BFAF7C9FE824642463346049110463D
:105680001946FAF7C4FE5246049BFAF7C0FE8A4652
:1056900000904FF0C0422E4B40463146FAF7B7FE1D
:1056A0002C4A2B4B00E027E0CDE90601514600983B
:1056B000FAF7ADFE82460191274A284B4046314613
:1056C000FAF7A5FE5246019BFAF79BFE82460B466F
:1056D00002460591DDE90601FAF7F2FDDDE9062350
:1056E000002688463046FAF78CFE5246059BFAF7AC
:1056F0008BFE024600F07EB90020B1F5801F07DA6C
:10570000352230466146FBF771F806466FF03400EB
:1057100000EB215024E00000FFFF1F00FFFF0F00FF
:105720000000F03F0000F07F0000404301FCFFFF5D
:105730007A1700000000F0FF0000F0BF0000E04119
:105740000000F043FFFFEF3F5555D53F0000E03F1D
:105750004715F73FFE822B6544DF5DF80BAE543EE4
:10576000A0F2FF300190C1F3130040F07F6141F0DF
:1057700040510291FE498842D8BF002004DDFD4916
:105780008142C8BF012001DD0D9008E000200D908E
:105790000198401C01900298A0F580100290029997
:1057A000F54878440B910D9900EBC100D0E9002336
:1057B0000F9330460A920B99FAF723FECDE90601C2
:1057C000DDE90A2130460F9BFAF77AFD02460B46C7
:1057D0000020EA49FAF79BFF059102460B4600902C
:1057E000DDE90601FAF713FE1490E5488A464FF00A
:1057F000000878440299006812904FF0005040EA87
:1058000061010D980F9B01EB804000F5002109918B
:105810000A9A1298FAF7F5FD32460B9BFAF7F4FD57
:1058200042465346FAF7F3FD06460291404651467A
:10583000099B129AFAF7EBFDDDE90623FAF7E4FD7E
:105840003246029BFAF7DDFD059B009AFAF7DFFD71
:105850000091149A0490534610461946FAF7D7FD62
:1058600006460246C7480B46029106217844FEF7D9
:105870005BFBCDE90510029B324610461946FAF74C
:10588000C6FDDDE90532FAF7C2FD0591064653462D
:1058900040461946149AFAF713FD009B049AFAF74A
:1058A000B6FD3246059BFAF70BFDCDE905104246E1
:1058B000534610461946FAF7AAFD0022B24B029150
:1058C0000A90FAF7FDFCDDE90532FAF7F9FC0E461D
:1058D0004246AD4B4046FAF794FD029B0A9AFAF70E
:1058E00090FDDDE90532FAF78FFD424602910A90FC
:1058F000334610465146FAF78AFDCDE90601534674
:10590000149A02990A98FAF782FD8A460290334661
:10591000424600990498FAF77AFD5346029AFAF73C
:10592000CFFC82460B4602460591DDE90601FAF7F7
:10593000C7FCDDE90623002088460646FAF761FD2C
:105940005246059BFAF760FD824609914FF060428E
:105950008E4B30464146FAF75AFD049006918C4A28
:105960008A4B50460999FAF752FD82460291894ABC
:10597000894B30464146FAF74AFD5246029BFAF7F8
:105980009FFC864B7B440D9A03EBC203D3E90023B3
:10599000FAF796FC0E9007910198FAF7AAFD059187
:1059A000DDE9061382460E9A0498FAF789FC7C4AD0
:1059B0007A440D9B02EBC303D3E9002300930292C8
:1059C000FAF77EFC5246059BFAF77AFC00268846D9
:1059D00052463046059BFAF714FD009B029AFAF7EF
:1059E00010FD069B049AFAF70CFD079B0E9AFAF736
:1059F0000BFD024600200B46029038462946FAF776
:105A000006FD824601912B4638461946029AFAF75E
:105A1000F8FC32464346FAF7FAFC5246019BFAF785
:105A20004FFC07468A463246434629460298FAF713
:105A3000EEFC05460E463A465346FAF741FC594AF3
:105A40008846914221DBA8EB020353EA000210D101
:105A50002A463346FAF7D5FCCDE90401524A534BA6
:105A600038465146FAF72CFCDDE90423FAF772FDBB
:105A700021D20220FEF7DEFAFEF7BCFA0A462146E2
:105A800018B062F31E01BDE8F08D494B28F00042CA
:105A90009A4210D3474A08EB020353EA00027FF40C
:105AA000C6AD2A463346FAF7ACFC3A465346FAF7F7
:105AB00051FD7FF6BCAD0022019228F000403E4926
:105AC0003E4A01EB2051824223DA481C4FF48011F8
:105AD00021FA00F040443A4AC0F30A517A44394B63
